:020000040000FA
:04000000C5EF10F048
:100800000054454D504552415455524100256420F5
:10081000432000001A50800B236E1A501A24296EB0
:1008200019AE15EF04F017EF04F018EF04F029806B
:100830002950D8B41EEF04F020EF04F033EF04F099
:100840002928D8A426EF04F028EF04F030EF04F0B4
:10085000000E176E000E186E000E196E000E1A6E46
:10086000198E3BEF04F0000E176E000E186E000E8E
:10087000196E000E1A6E1E50800B231A1E501E2475
:10088000286E1DAE46EF04F048EF04F049EF04F087
:1008900028802850D8B44FEF04F051EF04F064EFF3
:1008A00004F02828D8A457EF04F059EF04F061EFC2
:1008B00004F0000E1B6E000E1C6E000E1D6E000E6E
:1008C0001E6E1D8E6CEF04F0000E1B6E000E1C6E73
:1008D000000E1D6E000E1E6E2850D8B472EF04F08C
:1008E00074EF04F07CEF04F02950D8A47AEF04F000
:1008F0007CEF04F086EF04F0000E176E000E186E09
:10090000000E196E000E1A6E1EEF06F01D50170233
:10091000F3CF2EF0F4CF2FF02E50246E256A266AE6
:10092000276A2F502A6E2B6A2C6A2D6A1C501802D7
:10093000F3CF2EF0F4CF2FF02E502426000E2522D8
:10094000262227222F502A26000E2B222C222D224F
:100950001B501902F3CF2EF0F4CF2FF02E50242687
:10096000000E2522262227222F502A26000E2B2277
:100970002C222D2226C027F025C026F024C025F0E9
:10098000246A1B501802F3CF2EF0F4CF2FF02E5014
:1009900024262F502522000E2622000E27221C502E
:1009A0001702F3CF2EF0F4CF2FF02E5024262F5025
:1009B0002522000E2622000E272226C027F025C061
:1009C00026F024C025F0246A1B501702F3CF2EF026
:1009D000F4CF2FF02E5024262F502522000E262251
:1009E000000E27221D501802F3CF2EF0F4CF2FF067
:1009F0002E502A262F502B22000E2C22000E2D22A4
:100A00001C501902F3CF2EF0F4CF2FF02E502A26CF
:100A10002F502B22000E2C22000E2D221D501902C9
:100A2000F3CF2EF0F4CF2FF02E501F6E2F50206EEC
:100A3000216A226A21C022F020C021F01FC020F0CC
:100A40001F6A1F502A2620502B2221502C22225070
:100A50002D2224C01FF025C020F026C021F027C081
:100A600022F0190E39EF05F0D890223221322032CF
:100A70001F32E82E34EF05F01F502A2620502B227B
:100A800021502C2222502D2226C027F025C026F0EE
:100A900024C025F0246A285029C01FF0206A1F2690
:100AA000000E2022820E1F242E6EFF0E20202F6E9D
:100AB0006FEF05F0D8902A362B362C362D3627AE20
:100AC00064EF05F066EF05F067EF05F02A80D89037
:100AD00024362536263627362E06D8A02F062CAEED
:100AE00074EF05F076EF05F05AEF05F0000E286E72
:100AF00027AE7DEF05F07FEF05F0A3EF05F0FF0EC9
:100B000024141F6EFF0E2514206EFF0E2614216E76
:100B10007F0E2714226E1F50201021102210D8B4EF
:100B200094EF05F096EF05F09AEF05F0010E286EB0
:100B3000A3EF05F02AA09FEF05F0A1EF05F0A3EFCA
:100B400005F096EF05F02850D8B4A9EF05F0ABEF0B
:100B500005F0CFEF05F0010E2A26000E2B222C22E5
:100B60002D222DA0B6EF05F0B8EF05F0CFEF05F080
:100B70002AC01FF02BC020F02CC021F02DC022F085
:100B800022342232213220321F321FC02AF020C0EC
:100B90002BF021C02CF022C02DF02E4A2F2A2FBE80
:100BA000DAEF05F02F5008E12E28D8A0DAEF05F093
:100BB000DCEF05F0E6EF05F0000E2A6E000E2B6E5E
:100BC000800E2C6E7F0E2D6E14EF06F02FBEF3EF0D
:100BD00005F02F5006E12E04D8B0F1EF05F0F3EF49
:100BE00005F0FFEF05F0000E2A6E000E2B6E000ED2
:100BF0002C6E000E2D6E000E236E14EF06F02EC02C
:100C000029F0FF0E2A16FF0E2B167F0E2C16000E53
:100C10002D1629A00EEF06F010EF06F011EF06F0EA
:100C20002C8ED89029302D6E23502D122AC017F00B
:100C30002BC018F02CC019F02DC01AF0120004506F
:100C4000800B116E04500424186E03AE2AEF06F0D8
:100C50002CEF06F02DEF06F018801850D8B433EFC3
:100C600006F035EF06F04AEF06F01828D8A43BEF5F
:100C700006F03DEF06F045EF06F0000E016E000EA7
:100C8000026E000E036E000E046E038E000E046EE4
:100C900052EF06F0000E016E000E026E000E036EA3
:100CA000000E046E0850800B111A08500824196EAB
:100CB00007AE5DEF06F05FEF06F060EF06F019801B
:100CC0001950D8B466EF06F068EF06F07DEF06F035
:100CD0001928D8A46EEF06F070EF06F078EF06F052
:100CE000000E056E000E066E000E076E000E086EFA
:100CF000078E000E086E85EF06F0000E056E000EE2
:100D0000066E000E076E000E086E055006100710E6
:100D10000810D8A48EEF06F090EF06F0A8EF06F0CA
:100D2000000E016E000E026E000E036E000E046EC9
:100D3000800E03127F0E04121150041201C001F044
:100D400002C002F003C003F004C004F0EBEF07F0B0
:100D50001850D8A4AEEF06F0B0EF06F0BAEF06F0E8
:100D6000000E016E000E026E000E036E000E046E89
:100D7000EBEF07F0195018C009F00A6A095E000E7F
:100D80000A5A7F0E0924126E000E0A20136E01C04B
:100D90000DF002C00EF003C00FF004C010F0000E02
:100DA000016E000E026E000E036E000E046E000E49
:100DB000146E000E156E000E166E000E176E000EED
:100DC000196E1BEF07F01950D8B4E9EF06F0EBEFFE
:100DD00006F002EF07F0D8900D360E360F361036BB
:100DE000D890013602360336043617AEFAEF06F015
:100DF000FCEF06F0FDEF06F00180D89014361536B2
:100E00001636173605500D5C06500E5807500F5811
:100E100008501058D8A00FEF07F011EF07F01AEFA5
:100E200007F0178C05500D5E06500E5A07500F5AEA
:100E30000850105A192A190E196421EF07F023EFF0
:100E400007F0E3EF06F00D500E100F101010D8B49D
:100E50002CEF07F02EEF07F046EF07F0148046EF77
:100E600007F0D890013602360336043617AE3BEF52
:100E700007F03DEF07F03EEF07F00180D890143601
:100E80001536163617361206D8A0130603AE4BEFEA
:100E900007F04DEF07F031EF07F0000E196E17AEB7
:100EA00054EF07F056EF07F07AEF07F0FF0E141437
:100EB000096EFF0E15140A6EFF0E16140B6E7F0ED0
:100EC00017140C6E09500A100B100C10D8B46BEFED
:100ED00007F06DEF07F071EF07F0010E196E7AEF72
:100EE00007F001A076EF07F078EF07F07AEF07F050
:100EF0006DEF07F01950D8B480EF07F082EF07F0DC
:100F0000A6EF07F0010E0126000E022203220422A2
:100F100004A08DEF07F08FEF07F0A6EF07F001C0F8
:100F200009F002C00AF003C00BF004C00CF00C344E
:100F30000C320B320A32093209C001F00AC002F049
:100F40000BC003F00CC004F0124A132A13BEB1EF19
:100F500007F0135008E11228D8A0B1EF07F0B3EF63
:100F600007F0BEEF07F0000E136E1268000E016E60
:100F7000000E026E000E036E000E046E13BECBEF69
:100F800007F0135006E11204D8B0C9EF07F0CBEF19
:100F900007F0D9EF07F0000E136E000E126E000E70
:100FA000016E000E026E000E036E000E046E000E47
:100FB000116E12C018F018A0E0EF07F0E2EF07F092
:100FC000E5EF07F0038EE6EF07F0039ED8901830A8
:100FD000046E9CEF06F012001EC036F01FC037F002
:100FE00020C038F021C039F022C03AF023C03BF0D5
:100FF00024C03CF025C03DF03DBE01EF08F004EFF9
:1010000008F0010E05EF08F0000E346E356A34501A
:101010003510D8B40EEF08F010EF08F020EF08F00C
:101020003D1E3C1E3B1E3A1E391E381E371E366CB6
:10103000000E3722382239223A223B223C223D221E
:10104000000165BF26EF08F028EF08F029EF08F04F
:10105000669365BF36EF08F0655106E16405D8B0C8
:1010600034EF08F036EF08F03CEF08F0000E316E78
:10107000010E306E40EF08F064C030F065C031F012
:1010800062C032F063C033F034503510D8A44BEF57
:1010900008F04DEF08F054EF08F066A552EF08F0A5
:1010A00054EF08F057EF08F03206D8A03306000ED0
:1010B0003F6E1F0E3E6E000E896FDBEF08F03E069E
:1010C000D8A03F066A0E3E24D96E000E3F20DA6E8D
:1010D00036C001F037C002F038C003F039C004F068
:1010E0003AC005F03BC006F03CC007F03DC008F038
:1010F0000A0E096E000E0A6E000E0B6E000E0C6ECC
:10110000000E0D6E000E0E6E000E0F6E000E106EB5
:1011100090EC0CF001C026F002C027F003C028F0CC
:1011200004C029F005C02AF006C02BF007C02CF03F
:1011300008C02DF026C013F028C014F085EC10F084
:101140001350300FDF6E3006D8A031063206D8A01B
:10115000330636C001F037C002F038C003F039C0A2
:1011600004F03AC005F03BC006F03CC007F03DC0BB
:1011700008F00A0E096E000E0A6E000E0B6E000ECD
:101180000C6E000E0D6E000E0E6E000E0F6E000E39
:10119000106E11EC0BF001C036F002C037F003C046
:1011A00038F004C039F005C03AF006C03BF007C083
:1011B0003CF008C03DF03FBEE6EF08F03F5008E1CC
:1011C0003E04D8A0E6EF08F0E8EF08F019EF09F0C8
:1011D00036503710381039103A103B103C103D1083
:1011E000D8A4F5EF08F0F7EF08F05FEF08F031BE94
:1011F00004EF09F0315006E13004D8B002EF09F0F5
:1012000004EF09F05FEF08F033BE0FEF09F0335041
:1012100008E13204D8A00FEF09F011EF09F019EF3F
:1012200009F0000166B317EF09F019EF09F05FEF5D
:1012300008F034503510D8A420EF09F022EF09F05F
:101240002AEF09F0000166A528EF09F02AEF09F05E
:1012500048EF09F03E06D8A03F0634503510D8A418
:1012600034EF09F036EF09F03CEF09F0000E2F6E75
:101270002B0E2E6E40EF09F0000E2F6E2D0E2E6EEF
:101280006A0E3E24D96E000E3F20DA6E2EC0DFFFBC
:101290001CC011F01DC012F06A0E3E24136E000E29
:1012A0003F20146E32C015F033C016F0B8EC0EF0CB
:1012B00011C01CF012C01DF0120042C0D9FF43C083
:1012C000DAFFDECFF6FFDDCFF7FF0800F550250A85
:1012D000D8A46DEF09F06FEF09F01BEF0AF042C0E0
:1012E000D9FF43C0DAFFDE2A000EDD22000E000126
:1012F000636F000E626F62C066F063C067F064697E
:10130000656942C0D9FF43C0DAFFDECFF6FFDDCF0B
:10131000F7FF0800F550640AD8B491EF09F093EF95
:1013200009F0A5EF09F042C0D9FF43C0DAFFDECFD4
:10133000F6FFDDCFF7FF0800F550690AD8A4A3EF48
:1013400009F0A5EF09F0E5EF09F042C0D9FF43C06D
:10135000DAFFDE2A000EDD2244C0D9FF45C0DAFFE5
:10136000DFCF46F0020EDE26DFCF47F0000EDD2293
:1013700046C0D9FF47C0DAFFDECF48F0DDCF49F0E5
:10138000000E49BEFF0E4A6E4B6E4C6E4D6E4E6E99
:101390004F6E40C01CF041C01DF048C01EF049C057
:1013A0001FF04AC020F04BC021F04CC022F04DC0CD
:1013B00023F04EC024F04FC025F0ECEC07F01CC029
:1013C00040F01DC041F036EF0AF042C0D9FF43C0E3
:1013D000DAFFDECFF6FFDDCFF7FF0800F550250A74
:1013E000D8A4F5EF09F0F7EF09F00EEF0AF042C0CC
:1013F000D9FF43C0DAFFDE2A000EDD22000E026EA6
:10140000250E016E40C003F041C004F053EC0EF015
:10141000000E416E010E406E36EF0AF042C0D9FF59
:1014200043C0DAFFDE2A000EDD22000E416E000E00
:10143000406E36EF0AF042C0D9FF43C0DAFFDECF7C
:10144000F6FFDDCFF7FF0800F550016E026A40C0DD
:1014500003F041C004F053EC0EF042C0D9FF43C08A
:10146000DAFFDE2A000EDD2208EF0AF01200116E0C
:101470001150D8B43EEF0AF040EF0AF062EF0AF0E4
:101480000CBE47EF0AF045EF0AF062EF0AF009C020
:101490000DF00AC00EF00BC00FF00CC010F00D1EC6
:1014A0000E1E0F1E101E0D2A000E0E220F221022DD
:1014B0000DC013F00EC014F00FC015F010C016F0E0
:1014C0006AEF0AF009C013F00AC014F00BC015F05F
:1014D0000CC016F009500A100B100C10D8A473EFB2
:1014E0000AF075EF0AF07FEF0AF0000E096E000EA9
:1014F0000A6E000E0B6E000E0C6E10EF0BF0960EC7
:10150000126E89EF0AF0122AD89016321532143270
:101510001332000E13140D6E000E14140E6E000E16
:1015200015140F6EFE0E1614106E0D500E100F10C7
:101530001010D8A49EEF0AF0A0EF0AF083EF0AF093
:10154000AEEF0AF0122A010E1326000E1422152205
:101550001622D8901632153214321332000E13149C
:101560000D6E000E14140E6E000E15140F6EFF0E8D
:101570001614106E0D500E100F101010D8A4C3EFDB
:101580000AF0C5EF0AF0A2EF0AF0CDEF0AF012065A
:10159000D890133614361536163615BED2EF0AF02B
:1015A000D4EF0AF0DCEF0AF0020E1260DAEF0AF074
:1015B000DCEF0AF0C7EF0AF012B0E1EF0AF0E3EF58
:1015C0000AF0E4EF0AF0159ED890123212C00DF026
:1015D0000E6A0F6A106A0DC010F00F6A0E6A0D6A6B
:1015E0000D5013120E5014120F50151210501612E7
:1015F0001150D8B4FEEF0AF000EF0BF008EF0BF03B
:101600000CBE07EF0BF005EF0BF008EF0BF0168E9A
:1016100013C009F014C00AF015C00BF016C00CF08E
:101620001200000E126E10BE1AEF0BF018EF0BF046
:101630002CEF0BF0101E0F1E0E1E0D1E0C1E0B1E8F
:101640000A1E096C000E0A220B220C220D220E2209
:101650000F221022010E126E08BE33EF0BF031EF95
:101660000BF045EF0BF0081E071E061E051E041E9C
:10167000031E021E016C000E022203220422052218
:10168000062207220822010E121A20EE13F0070E7E
:10169000DE6AE806FDE209500A100B100C100D106E
:1016A0000E100F101010D8B458EF0BF05AEF0BF0CB
:1016B000ACEF0BF0010E116E68EF0BF0D89009360D
:1016C0000A360B360C360D360E360F361036112A0A
:1016D00010AE6DEF0BF06FEF0BF05EEF0BF0D890EC
:1016E00013361436153616361736183619361A3696
:1016F0000950015C0A5002580B5003580C50045812
:101700000D5005580E5006580F50075810500858E5
:10171000D8A08DEF0BF08FEF0BF0A0EF0BF009507E
:10172000015E0A50025A0B50035A0C50045A0D50D5
:10173000055A0E50065A0F50075A1050085A138077
:10174000D89010320F320E320D320C320B320A3278
:101750000932112E6FEF0BF01250D8B4B2EF0BF02C
:10176000B4EF0BF0C4EF0BF01A1E191E181E171E53
:10177000161E151E141E136C000E1422152216229E
:101780001722182219221A2213C001F014C002F0E5
:1017900015C003F016C004F017C005F018C006F01D
:1017A00019C007F01AC008F0120001C00BF002C007
:1017B0000CF005500610D8A4E0EF0BF0E2EF0BF0B0
:1017C000E4EF0BF08FEF0CF00BC0D9FF0CC0DAFF89
:1017D00003C0DFFF05500B24076E06500C20086E77
:1017E000FF0E0724D96EFF0E0820DA6E03C0DFFF5C
:1017F000065007E1030E055CD8B001EF0CF003EFD3
:101800000CF005EF0CF08FEF0CF020EE01F00B5018
:10181000D9260C50DA2203C0DFFF20EE02F00B5075
:10182000D9260C50DA2203C0DFFF05500B24076EC7
:1018300006500C20086EFE0E0724D96EFF0E0820FD
:10184000DA6E03C0DFFF05500B24076E06500C2034
:10185000086EFD0E0724D96EFF0E0820DA6E03C055
:10186000DFFF065007E1070E055CD8B03AEF0CF039
:101870003CEF0CF03EEF0CF08FEF0CF020EE03F09D
:101880000B50D9260C50DA2203C0DFFF05500B2481
:10189000076E06500C20086EFC0E0724D96EFF0E52
:1018A0000820DA6E03C0DFFF065007E1090E055C71
:1018B000D8B05DEF0CF05FEF0CF061EF0CF08FEF44
:1018C0000CF00BC007F00CC008F0071E081E074AFA
:1018D000082A030E0714096E0A6A09500B260A50DB
:1018E0000C220950055E0A50065AFC0E0516FF0E22
:1018F000061686EF0CF00BC0D9FF0CC0DAFF03C050
:10190000DFFF0506D8A006060B4A0C2A0550061074
:10191000D8A48DEF0CF08FEF0CF07BEF0CF01200E1
:10192000000E126E08BE99EF0CF097EF0CF0ABEFC3
:101930000CF0081E071E061E051E041E031E021EB6
:10194000016C000E02220322042205220622072235
:101950000822010E126E10BEB2EF0CF0B0EF0CF0C8
:10196000C2EF0CF0101E0F1E0E1E0D1E0C1E0B1EC5
:101970000A1E096C000E0A220B220C220D220E22D6
:101980000F22102209500A100B100C100D100E100F
:101990000F101010D8B4CFEF0CF0D1EF0CF019EFFE
:1019A0000DF0010E116EDFEF0CF0D89009360A36FB
:1019B0000B360C360D360E360F361036112A10AE99
:1019C000E4EF0CF0E6EF0CF0D5EF0CF00950015C01
:1019D0000A5002580B5003580C5004580D5005582B
:1019E0000E5006580F50075810500858D8A0FBEF5B
:1019F0000CF0FDEF0CF00DEF0DF00950015E0A50F8
:101A0000025A0B50035A0C50045A0D50055A0E50EE
:101A1000065A0F50075A1050085AD89010320F32F9
:101A20000E320D320C320B320A320932112EE6EF31
:101A30000CF01250D8B41FEF0DF021EF0DF031EF84
:101A40000DF0081E071E061E051E041E031E021EA4
:101A5000016C000E02220322042205220622072224
:101A6000082201C001F002C002F003C003F004C06C
:101A700004F005C005F006C006F007C007F008C076
:101A800008F01200720ED36EFDEC10F015EC11F0A0
:101A9000000E0B6E010E0C6E080E0D6E010EA5EC05
:101AA00010F0000E026E010E016E1BEC0FF001C073
:101AB00009F002C00AF0000E0ABEFF0E0B6E0C6E9B
:101AC000010E37EC0AF009C017F00AC018F00BC07D
:101AD00019F00CC01AF0F60E1B6E280E1C6E9C0E30
:101AE0001D6E400E1E6E0AEC04F017C09EF018C06A
:101AF0009FF019C0A0F01AC0A1F09EC001F09FC0D5
:101B000002F0A0C003F0A1C004F0000E056E000EAC
:101B1000066E200E076E410E086E1FEC06F001C027
:101B20009EF002C09FF003C0A0F004C0A1F0940E8C
:101B3000586E000E596E0D0E5A6E080E5B6E9EC0EA
:101B400001F09FC002F0A0C003F0A1C004F0D0ECEF
:101B50000DF001C05CF002C05DF0C9EC0FF0000EAA
:101B60000B6E940E0C6E000E0D6E020EA5EC10F0B6
:101B7000000E026E0A0E016E3EEC10F0940E016E25
:101B8000000E026E000E046E000E036E000E066E56
:101B90000A0E056ED5EC0BF048EF0DF000EF00F0EB
:101BA000033404340A6E0A50D8A4D9EF0DF0DBEFE9
:101BB0000DF0E5EF0DF0000E016E000E026E000E4E
:101BC000036E000E046E52EF0EF001C005F002C06D
:101BD00006F003C007F004C008F0200EF5EF0DF08A
:101BE000D8900832073206320532E82EF0EF0DF0B9
:101BF0000550096E038EFF0E0116FF0E0216FF0E32
:101C00000316000E0416960E0A5E0ABE0CEF0EF0C6
:101C10000AEF0EF022EF0EF00A50800A970FD8B0AC
:101C200014EF0EF016EF0EF018EF0EF0DBEF0DF0E4
:101C3000D89004320332023201320A3E18EF0EF01D
:101C40003AEF0EF01F0E0A6428EF0EF02AEF0EF0A6
:101C500032EF0EF0DBEF0DF0D8900136023603368E
:101C600004360A060A50D8A438EF0EF03AEF0EF008
:101C70002CEF0EF00950D8B440EF0EF042EF0EF00A
:101C80004AEF0EF0041E031E021E016C000E02221B
:101C90000322042201C001F002C002F003C003F0DD
:101CA00004C004F0120003500410D8B45AEF0EF030
:101CB0005CEF0EF065EF0EF003500410D8A463EF54
:101CC0000EF065EF0EF06AEF0EF0015027EC11F008
:101CD000B7EF0EF020EE04F00350D9260450DA22BC
:101CE000DE50DE10D8B477EF0EF079EF0EF094EFFF
:101CF0000EF020EE04F00350D9260450DA2210EE44
:101D000002F00350E1260450E222DE50E65CE65089
:101D1000800A096EDE50800A0958D8B092EF0EF0A2
:101D200094EF0EF0B7EF0EF020EE02F00350D9263C
:101D30000450DA22DECF05F0DDCF06F003C0D9FF74
:101D400004C0DAFFDECF07F0DDCF08F0055007242E
:101D5000D96E06500820DA6E01C0DFFF20EE02F0D7
:101D60000350D9260450DA22DE2A000EDD221200AA
:101D7000000166A1BEEF0EF0C0EF0EF0CAEF0EF04C
:101D800013C00AF014C00BF011C00CF012C00DF01B
:101D900063EC10F016BECFEF0EF0D1EF0EF0D7EFE0
:101DA0000EF015C01AF016C01BF0DBEF0EF0000E9F
:101DB0001B6E000E1A6E000E196E000E186EEDEFFF
:101DC0000EF0000E026E200E016E11C003F012C064
:101DD00004F053EC0EF0184A192A1A50185C1950E6
:101DE000800A176E1B50800A1758D8A0FAEF0EF021
:101DF000FCEF0EF0E1EF0EF0000166B102EF0FF024
:101E000004EF0FF00EEF0FF013C00AF014C00BF048
:101E100011C00CF012C00DF063EC10F013C001F013
:101E200014C002F0E2EC10F01A500124116E1B50A5
:101E30000220126E120001C003F0D8900336D89031
:101E400003363C0E0316C250C30B0310C26EC2B25F
:101E50002CEF0FF030EF0FF0036A032A31EF0FF091
:101E6000036A010E046E032A38EF0FF0D89004368F
:101E7000032E36EF0FF0C2B040EF0FF044EF0FF03B
:101E8000056A052A45EF0FF0056A010E066E052A60
:101E90004CEF0FF0D8900636052E4AEF0FF00650A3
:101EA0000410C212C2B257EF0FF059EF0FF052EF09
:101EB0000FF0C350C4CF03F0046A03C004F0036AF8
:101EC0000310076E0450086E07C001F008C002F04E
:101ED000120052C056F053C057F0000E0001616F5F
:101EE000000E606F87EF0FF050C040F051C041F01E
:101EF000560E426E000E436E54C044F055C045F07D
:101F00005DEC09F04050000160274150612356C04C
:101F1000F6FF57C0F7FF0800F5500009D8A493EF6B
:101F20000FF095EF0FF074EF0FF060C050F061C04C
:101F300051F01200B0EF0FF009C0F6FF0AC0F7FF32
:101F4000F86A070EF76403D00800F55005D0F6CF05
:101F5000E1FFF7CFE2FFE750F2EC0FF0094A0A2A5F
:101F600009C0F6FF0AC0F7FFF86A070EF76403D04E
:101F70000800F55005D0F6CFE1FFF7CFE2FFE750BC
:101F80000009D8A4C6EF0FF0C8EF0FF09CEF0FF0D8
:101F900012005C0E00018C6F000E8D6F58C08EF029
:101FA00059C08FF0000E916F000E906F000E936F6E
:101FB000000E926F8E0E506E000E516E5AC052F08F
:101FC0005BC053F08C0E546E000E556E69EC0FF032
:101FD000000190515824D96E91515920DA6E000EAB
:101FE000DF6E1200086E08C007F0F00E07168C5066
:101FF0000F0B07108C6E8C808C8200F08C92000E80
:10200000026E010E016E3EEC10F008C007F0073AB8
:10201000F00E07168C500F0B07108C6E8C8200F0A0
:102020008C92000E026E030E016E3EEC10F0120058
:10203000086E08C007F0F00E07168C500F0B071043
:102040008C6E8C908C8200F08C92000E026E010ED1
:10205000016E3EEC10F008C007F0073AF00E0716CC
:102060008C500F0B07108C6E8C8200F08C92000E3F
:10207000026E030E016E3EEC10F01200000E046EB4
:10208000000E036E57EF10F0000E066E000E056E88
:10209000054A062A065009E1A50E055CD8A053EFB3
:1020A00010F055EF10F048EF10F0034A042A0150E9
:1020B000035C02500458D8A060EF10F062EF10F0FB
:1020C00044EF10F01200000E106E000E0F6E74EF51
:1020D00010F00EC001F0026A0CC003F00DC004F055
:1020E00053EC0EF00F4A102A0F500A24D96E1050EC
:1020F0000B20DA6EDF500E6E0E50D8A482EF10F077
:1021000084EF10F069EF10F0120014BE92EF10F09F
:10211000145006E11304D8B090EF10F092EF10F0D5
:10212000A0EF10F013C015F014C016F0151E161E07
:10213000154A162A15C013F016C014F0A4EF10F0BB
:1021400013C013F014C014F012000E6E020E0E60D5
:10215000ACEF10F0AEEF10F0B7EF10F00B500F0B2C
:1021600080090F6E0F5018EC10F0BEEF10F00B50FE
:102170000F0BC0090F6E0F5018EC10F00CC009F0D7
:102180000DC00AF09AEC0FF012003E0EF66E220E11
:10219000F76E000EF86E00EEA2F010EE10F00900DF
:1021A000F5CFEEFFE550E150FAE100EE60F02A0EC7
:1021B000EE6AE806FDE15F6A5E6A000EF86E0001F5
:1021C00042EF0DF001C003F002C004F0EAEF10F09E
:1021D000014A022A01C0D9FF02C0DAFFDF50D8A4A9
:1021E000F4EF10F0F6EF10F0E8EF10F00350015CA0
:1021F000016E04500258026E1200000E956E000E21
:10220000026E0F0E016E3EEC10F0020E18EC10F094
:10221000280E18EC10F0010E18EC10F00C0E18EC53
:1022200010F0060E18EC10F012009268000EC16E4D
:10223000920EC06E000EC46E000EC36E12003132DC
:10224000332B3435362D3738392A20303D2F1200C4
:020000040020DA
:08000000FFFFFFFFFFFFFFFF00
:020000040030CA
:0E00000000091F1EFF0181FF0FC00FE00F401F
:00000001FF
