:020000040000FA
:040000002EEF12F0DD
:100800000001000A006400E8031027413D417574AF
:100810006F6D617469636F0054454D50455241548A
:1008200055524100504F542E2044494D4D455200E1
:10083000534554504F494E542000423D4D616E7512
:10084000616C002564204320002564200000000E18
:1008500000017F6F000E7E6F000E856F000E846FAB
:10086000000E6B6F000E6A6F948294908B90720EE4
:10087000D36EF19E61EC12F079EC12F0000E0B6E6B
:100880000B0E0C6E080E0D6E010EF2EC11F0000E48
:100890000B6E3A0E0C6E080E0D6E020EF2EC11F09D
:1008A000030E026EE80E016ECDEC11F08BEC12F02F
:1008B000800EA7EC11F0E1EC0AF00001906F000E41
:1008C000026E140E016ECDEC11F0200E0001901995
:1008D000D8B46DEF04F06FEF04F05BEF04F0410E5D
:1008E0009019D8A476EF04F078EF04F08EEF04F0BE
:1008F000000E0B6E0B0E0C6E080E0D6E010EF2EC60
:1009000011F0000E0001876F010E866F030E026E5C
:10091000E80E016ECDEC11F0A9EF04F0420E901933
:10092000D8A495EF04F097EF04F0A7EF04F0000EC1
:100930000B6E3A0E0C6E080E0D6E010EF2EC11F0FD
:10094000000E0001876F020E866F86EF04F05BEFEA
:1009500004F08BEC12F0800EA7EC11F0000186057C
:100960008711D8A4B6EF04F0B8EF04F0BBEF05F0A0
:10097000000E0B6E300E0C6E080E0D6E010EF2ECBA
:1009800011F0E1EC0AF00001906F200E9019D8B43C
:10099000CCEF04F0CEEF04F0C1EF04F0410E90195B
:1009A000D8B4D5EF04F0D7EF04F005EF05F0420E10
:1009B0009019D8B4DEEF04F0E0EF04F005EF05F095
:1009C000430E9019D8B4E7EF04F0E9EF04F005EF17
:1009D00005F0440E9019D8B4F0EF04F0F2EF04F0F3
:1009E00005EF05F0450E9019D8B4F9EF04F0FBEFD0
:1009F00004F005EF05F0820E7E25D96E000E7F21F2
:100A0000DA6E90C0DFFF7E4B7F2B450E9019D8A485
:100A10000CEF05F00EEF05F0C1EF04F0820E0D6E45
:100A2000000E0E6EE1EC0EF00DC076F00EC077F009
:100A30000FC078F010C079F0000E0B6E180E0C6E1F
:100A4000080E0D6E020EF2EC11F0000E026E000E9A
:100A5000016E63EC10F001C011F002C012F0000E44
:100A600012BEFF0E136E146E010E37EC0DF011C0A6
:100A70001FF012C020F013C021F014C022F04E0E5F
:100A8000236E620E246E9C0E256E400E266EFFECC9
:100A900006F01FC08CF020C08DF021C08EF022C067
:100AA0008FF08CC038F08DC039F08EC03AF08FC016
:100AB0003BF0000E3C6E000E3D6E200E3E6E410E71
:100AC0003F6E14EC09F038C08CF039C08DF03AC09C
:100AD0008EF03BC08FF08CC001F08DC002F08EC054
:100AE00003F08FC004F07EEC0FF001C084F002C070
:100AF00085F06C0E0D6E000E0E6E430E0F6E080E1E
:100B0000106E8CC001F08DC002F08EC003F08FC05B
:100B100004F07EEC0FF001C011F002C012F011ECF5
:100B20000EF00C0E0B6E6C0E0C6E000E0D6E020EA7
:100B3000F2EC11F000018451765D806F8551775998
:100B4000816F805108080B6E8151D8A0E82A0008F7
:100B50000C6E4EEC0CF06C0E016E000E026E000E70
:100B6000046E000E036E000E066E0A0E056E12EC89
:100B700012F01CEF05F0020E86198711D8A4C3EFFE
:100B800005F0C5EF05F0AEEF04F0000E0B6E180E89
:100B90000C6E080E0D6E010EF2EC11F0000E026EDE
:100BA000000E016E63EC10F001C011F002C012F0F3
:100BB000000E12BEFF0E136E146E010E37EC0DF018
:100BC00011C01FF012C020F013C021F014C022F099
:100BD0004E0E236E620E246E9C0E256E400E266E07
:100BE000FFEC06F01FC08CF020C08DF021C08EF00D
:100BF00022C08FF08CC038F08DC039F08EC03AF032
:100C00008FC03BF0000E3C6E000E3D6E200E3E6E1F
:100C1000410E3F6E14EC09F038C08CF039C08DF0F5
:100C20003AC08EF03BC08FF08CC001F08DC002F056
:100C30008EC003F08FC004F07EEC0FF06C0E0D6ED2
:100C4000000E0E6E430E0F6E080E106E8CC001F07B
:100C50008DC002F08EC003F08FC004F07EEC0FF068
:100C600001C011F002C012F011EC0EF00C0E0B6E70
:100C70006C0E0C6E000E0D6E010EF2EC11F0000EFB
:100C8000026E010E016ECDEC11F0000E0C6E7C0EAA
:100C90000B6E000E026E010E016E63EC10F001C0CF
:100CA00009F002C00AF001EC10F009C011F00AC00E
:100CB00012F0000E12BEFF0E136E146E010E37EC12
:100CC0000DF011C088F012C089F013C08AF014C072
:100CD0008BF088C001F089C002F08AC003F08BC09D
:100CE00004F07EEC0FF001C011F002C012F0000E13
:100CF00012BEFF0E136E146E010E37EC0DF011C014
:100D000088F012C089F013C08AF014C08BF0000E76
:100D1000236E000E246EC80E256E420E266E88C00D
:100D20001FF089C020F08AC021F08BC022F0FFECB8
:100D300006F01FC038F020C039F021C03AF022C0C0
:100D40003BF0000E3C6E000E3D6E000E3E6E410EFE
:100D50003F6E14EC09F038C07AF039C07BF03AC02D
:100D60007CF03BC07DF0000E0B6E240E0C6E080E66
:100D70000D6E020EF2EC11F0600E0D6E000E0E6E96
:100D8000490E0F6E080E106E7AC001F07BC002F0A3
:100D90007CC003F07DC004F07EEC0FF001C011F0C8
:100DA00002C012F011EC0EF00D0E0B6E600E0C6E08
:100DB000000E0D6E020EF2EC11F088C001F089C039
:100DC00002F08AC003F08BC004F07EEC0FF001C08B
:100DD0000BF002C00CF04EEC0CF06C0E016E000E2D
:100DE000026E000E046E000E036E000E066E0A0EFA
:100DF000056E12EC12F0C5EF05F000EF00F0225086
:100E0000800B2B6E22502224316E21AE0AEF07F0A8
:100E10000CEF07F00DEF07F031803150D8B413EF2D
:100E200007F015EF07F028EF07F03128D8A41BEFE3
:100E300007F01DEF07F025EF07F0000E1F6E000E04
:100E4000206E000E216E000E226E218E30EF07F014
:100E5000000E1F6E000E206E000E216E000E226E20
:100E60002650800B2B1A26502624306E25AE3BEFE1
:100E700007F03DEF07F03EEF07F030803050D8B478
:100E800044EF07F046EF07F059EF07F03028D8A4F9
:100E90004CEF07F04EEF07F056EF07F0000E236E11
:100EA000000E246E000E256E000E266E258E61EF5C
:100EB00007F0000E236E000E246E000E256E000E4D
:100EC000266E3050D8B467EF07F069EF07F071EF86
:100ED00007F03150D8A46FEF07F071EF07F07BEF08
:100EE00007F0000E1F6E000E206E000E216E000E29
:100EF000226E13EF09F025501F02F3CF36F0F4CF26
:100F000037F036502C6E2D6A2E6A2F6A3750326EAB
:100F1000336A346A356A24502002F3CF36F0F4CFB6
:100F200037F036502C26000E2D222E222F2237503D
:100F30003226000E33223422352223502102F3CFF1
:100F400036F0F4CF37F036502C26000E2D222E220C
:100F50002F2237503226000E3322342235222EC063
:100F60002FF02DC02EF02CC02DF02C6A2350200223
:100F7000F3CF36F0F4CF37F036502C2637502D22F1
:100F8000000E2E22000E2F2224501F02F3CF36F027
:100F9000F4CF37F036502C2637502D22000E2E225B
:100FA000000E2F222EC02FF02DC02EF02CC02DF0C1
:100FB0002C6A23501F02F3CF36F0F4CF37F03650AF
:100FC0002C2637502D22000E2E22000E2F222550C7
:100FD0002002F3CF36F0F4CF37F0365032263750B8
:100FE0003322000E3422000E352224502102F3CF8A
:100FF00036F0F4CF37F03650322637503322000E19
:101000003422000E352225502102F3CF36F0F4CFE2
:1010100037F03650276E3750286E296A2A6A29C061
:101020002AF028C029F027C028F0276A2750322646
:1010300028503322295034222A5035222CC027F040
:101040002DC028F02EC029F02FC02AF0190E2EEF47
:1010500008F0D8902A32293228322732E82E29EF98
:1010600008F02750322628503322295034222A50A3
:1010700035222EC02FF02DC02EF02CC02DF02C6A62
:10108000305031C027F0286A2726000E2822820E11
:101090002724366EFF0E2820376E64EF08F0D890B4
:1010A00032363336343635362FAE59EF08F05BEF33
:1010B00008F05CEF08F03280D8902C362D362E36B2
:1010C0002F363606D8A0370634AE69EF08F06BEF3E
:1010D00008F04FEF08F0000E306E2FAE72EF08F000
:1010E00074EF08F098EF08F0FF0E2C14276EFF0E37
:1010F0002D14286EFF0E2E14296E7F0E2F142A6ECB
:101100002750281029102A10D8B489EF08F08BEF47
:1011100008F08FEF08F0010E306E98EF08F032A063
:1011200094EF08F096EF08F098EF08F08BEF08F0D6
:101130003050D8B49EEF08F0A0EF08F0C4EF08F0EC
:10114000010E3226000E33223422352235A0ABEFB9
:1011500008F0ADEF08F0C4EF08F032C027F033C05C
:1011600028F034C029F035C02AF02A342A32293236
:101170002832273227C032F028C033F029C034F09B
:101180002AC035F0364A372A37BECFEF08F037503D
:1011900008E13628D8A0CFEF08F0D1EF08F0DBEF58
:1011A00008F0000E326E000E336E800E346E7F0E2D
:1011B000356E09EF09F037BEE8EF08F0375006E169
:1011C0003604D8B0E6EF08F0E8EF08F0F4EF08F0E6
:1011D000000E326E000E336E000E346E000E356E51
:1011E000000E2B6E09EF09F036C031F0FF0E3216FB
:1011F000FF0E33167F0E3416000E351631A003EFA6
:1012000009F005EF09F006EF09F0348ED89031307F
:10121000356E2B50351232C01FF033C020F034C071
:1012200021F035C022F012003B50800B486E3B503D
:101230003B244F6E3AAE1FEF09F021EF09F022EF89
:1012400009F04F804F50D8B428EF09F02AEF09F089
:101250003FEF09F04F28D8A430EF09F032EF09F042
:101260003AEF09F0000E386E000E396E000E3A6E3D
:10127000000E3B6E3A8E000E3B6E47EF09F0000EFB
:10128000386E000E396E000E3A6E000E3B6E3F5007
:10129000800B481A3F503F24506E3EAE52EF09F08B
:1012A00054EF09F055EF09F050805050D8B45BEF7F
:1012B00009F05DEF09F072EF09F05028D8A463EF50
:1012C00009F065EF09F06DEF09F0000E3C6E000EBD
:1012D0003D6E000E3E6E000E3F6E3E8E000E3F6E67
:1012E0007AEF09F0000E3C6E000E3D6E000E3E6E71
:1012F000000E3F6E3C503D103E103F10D8A483EFCF
:1013000009F085EF09F09DEF09F0000E386E000E30
:10131000396E000E3A6E000E3B6E800E3A127F0E52
:101320003B1248503B1238C038F039C039F03AC04F
:101330003AF03BC03BF0E0EF0AF04F50D8A4A3EFE7
:1013400009F0A5EF09F0AFEF09F0000E386E000EBE
:10135000396E000E3A6E000E3B6EE0EF0AF0505010
:101360004FC040F0416A405E000E415A7F0E40245B
:10137000496E000E41204A6E38C044F039C045F035
:101380003AC046F03BC047F0000E386E000E396E92
:10139000000E3A6E000E3B6E000E4B6E000E4C6E51
:1013A000000E4D6E000E4E6E000E506E10EF0AF0E5
:1013B0005050D8B4DEEF09F0E0EF09F0F7EF09F094
:1013C000D8904436453646364736D8903836393682
:1013D0003A363B364EAEEFEF09F0F1EF09F0F2EF9F
:1013E00009F03880D8904B364C364D364E363C504E
:1013F000445C3D5045583E5046583F504758D8A051
:1014000004EF0AF006EF0AF00FEF0AF04E8C3C50A2
:10141000445E3D50455A3E50465A3F50475A502A26
:10142000190E506416EF0AF018EF0AF0D8EF09F021
:101430004450451046104710D8B421EF0AF023EF6E
:101440000AF03BEF0AF04B803BEF0AF0D8903836B9
:1014500039363A363B364EAE30EF0AF032EF0AF00C
:1014600033EF0AF03880D8904B364C364D364E3636
:101470004906D8A04A063AAE40EF0AF042EF0AF019
:1014800026EF0AF0000E506E4EAE49EF0AF04BEF19
:101490000AF06FEF0AF0FF0E4B14406EFF0E4C1473
:1014A000416EFF0E4D14426E7F0E4E14436E40503F
:1014B000411042104310D8B460EF0AF062EF0AF016
:1014C00066EF0AF0010E506E6FEF0AF038A06BEF76
:1014D0000AF06DEF0AF06FEF0AF062EF0AF0505079
:1014E000D8B475EF0AF077EF0AF09BEF0AF0010E1F
:1014F0003826000E39223A223B223BA082EF0AF026
:1015000084EF0AF09BEF0AF038C040F039C041F098
:101510003AC042F03BC043F043344332423241329E
:10152000403240C038F041C039F042C03AF043C0C8
:101530003BF0494A4A2A4ABEA6EF0AF04A5008E15F
:101540004928D8A0A6EF0AF0A8EF0AF0B3EF0AF0F6
:10155000000E4A6E4968000E386E000E396E000E9D
:101560003A6E000E3B6E4ABEC0EF0AF04A5006E1EA
:101570004904D8B0BEEF0AF0C0EF0AF0CEEF0AF08F
:10158000000E4A6E000E496E000E386E000E396E67
:10159000000E3A6E000E3B6E000E486E49C04FF0D2
:1015A0004FA0D5EF0AF0D7EF0AF0DAEF0AF03A8E43
:1015B000DBEF0AF03A9ED8904F303B6E91EF09F086
:1015C0001200F00E936EF00E8A6E8150F00B556E85
:1015D000F00E5518D8A4EFEF0AF0F1EF0AF0E5EF9E
:1015E0000AF08150F00B556EF00E5518D8A4FBEFA1
:1015F0000AF0FDEF0AF0E5EF0AF0F00E8A6E815076
:10160000F00B556EF00E5518D8B409EF0BF00BEF38
:101610000BF0FFEF0AF08150F00B556EF00E5518ED
:10162000D8B415EF0BF017EF0BF0FFEF0AF0000E38
:10163000026E140E016ECDEC11F08150F00B556E60
:10164000FE0E8A6E8150F00B556E55C053F0F00EB1
:101650005518D8B42EEF0BF030EF0BF042EF0BF033
:10166000000E546E37EF0BF08150F00B536EF00EFE
:101670005318D8A43EEF0BF040EF0BF034EF0BF013
:10168000A6EF0BF0FD0E8A6E8150F00B556E55C023
:1016900053F0F00E5518D8B450EF0BF052EF0BF09A
:1016A00064EF0BF0010E546E59EF0BF08150F00B0C
:1016B000536EF00E5318D8A460EF0BF062EF0BF0EE
:1016C00056EF0BF0A6EF0BF0FB0E8A6E8150F00B7D
:1016D000556E55C053F0F00E5518D8B472EF0BF09C
:1016E00074EF0BF086EF0BF0020E546E7BEF0BF0F5
:1016F0008150F00B536EF00E5318D8A482EF0BF00C
:1017000084EF0BF078EF0BF0A6EF0BF0F70E8A6E7C
:101710008150F00B556E55C053F0F00E5518D8B4EB
:1017200094EF0BF096EF0BF020EF0BF0030E546EDE
:101730009DEF0BF08150F00B536EF00E5318D8A4B0
:10174000A4EF0BF0A6EF0BF09AEF0BF0E00E55189C
:10175000D8A4ADEF0BF0AFEF0BF0D8EF0BF0525079
:10176000D8A4B5EF0BF0B7EF0BF0C2EF0BF054506D
:10177000040D910EF324D96E000EF420DA6EDF50C2
:1017800081EC11F0030E5418D8A4C9EF0BF0CBEF85
:101790000BF0CDEF0BF0000E526E5450040D910E75
:1017A000F324D96E000EF420DA6EDF504DEF0CF00A
:1017B000D00E5518D8A4DFEF0BF0E1EF0BF0FFEFE0
:1017C0000BF05250D8A4E7EF0BF0E9EF0BF0F4EF79
:1017D0000BF05450040D920EF324D96E000EF42039
:1017E000DA6EDF5081EC11F05450040D920EF324A8
:1017F000D96E000EF420DA6EDF504DEF0CF0B00E13
:101800005518D8A406EF0CF008EF0CF031EF0CF0EF
:10181000030E5418D8A40FEF0CF011EF0CF013EFD7
:101820000CF0010E526E5250D8A419EF0CF01BEFC1
:101830000CF026EF0CF05450040D930EF324D96EE7
:10184000000EF420DA6EDF5081EC11F05450040DDC
:10185000930EF324D96E000EF420DA6EDF504DEFB4
:101860000CF05250D8A437EF0CF039EF0CF044EFE5
:101870000CF05450040D940EF324D96E000EF42095
:10188000DA6EDF5081EC11F05450040D940EF32405
:10189000D96E000EF420DA6EDF5012000CBE5AEF43
:1018A0000CF00C5009E1080E0B5CD8A05AEF0CF0BC
:1018B0005CEF0CF060EF0CF0000E0C6E080E0B6E7F
:1018C0000CBE6DEF0CF00C5006E10B04D8B06BEFC2
:1018D0000CF06DEF0CF004EF0DF0000E0C6E000E2E
:1018E0000B6E04EF0DF0000E026E000E016ECDECDB
:1018F00011F08B8082A27FEF0CF081EF0CF07AEF79
:101900000CF08B9036EF0DF0000E026E010E016EA2
:10191000CDEC11F08B8082A290EF0CF092EF0CF0E6
:101920008BEF0CF081EF0CF0000E026E020E016ED8
:10193000CDEC11F08B8082A2A0EF0CF0A2EF0CF0A6
:101940009BEF0CF081EF0CF0000E026E030E016EA7
:10195000CDEC11F08B8082A2B0EF0CF0B2EF0CF066
:10196000ABEF0CF081EF0CF0000E026E040E016E76
:10197000CDEC11F08B8082A2C0EF0CF0C2EF0CF026
:10198000BBEF0CF081EF0CF0000E026E050E016E45
:10199000CDEC11F08B8082A2D0EF0CF0D2EF0CF0E6
:1019A000CBEF0CF081EF0CF0000E026E060E016E14
:1019B000CDEC11F08B8082A2E0EF0CF0E2EF0CF0A6
:1019C000DBEF0CF081EF0CF0000E026E070E016EE3
:1019D000CDEC11F08B8082A2F0EF0CF0F2EF0CF066
:1019E000EBEF0CF081EF0CF0000E026E080E016EB2
:1019F000CDEC11F08B8082A200EF0DF002EF0DF024
:101A0000FBEF0CF081EF0CF00BC00DF00CC00EF0F2
:101A10000E50000AD8B40FEF0DF036EF0DF00D5058
:101A2000000AD8B473EF0CF0010AD8B484EF0CF0BC
:101A3000030AD8B494EF0CF0010AD8B4A4EF0CF068
:101A4000070AD8B4B4EF0CF0010AD8B4C4EF0CF014
:101A5000030AD8B4D4EF0CF0010AD8B4E4EF0CF0C8
:101A60000F0AD8B4F4EF0CF036EF0DF01200196E37
:101A70001950D8B43EEF0DF040EF0DF062EF0DF0CD
:101A800014BE47EF0DF045EF0DF062EF0DF011C001
:101A900015F012C016F013C017F014C018F0151E80
:101AA000161E171E181E152A000E1622172218229F
:101AB00015C01BF016C01CF017C01DF018C01EF09A
:101AC0006AEF0DF011C01BF012C01CF013C01DF026
:101AD00014C01EF01150121013101410D8A473EF7C
:101AE0000DF075EF0DF07FEF0DF0000E116E000E92
:101AF000126E000E136E000E146E10EF0EF0960EA6
:101B00001A6E89EF0DF01A2AD8901E321D321C323F
:101B10001B32000E1B14156E000E1C14166E000EE8
:101B20001D14176EFE0E1E14186E15501610171089
:101B30001810D8A49EEF0DF0A0EF0DF083EF0DF07C
:101B4000AEEF0DF01A2A010E1B26000E1C221D22DC
:101B50001E22D8901E321D321C321B32000E1B1466
:101B6000156E000E1C14166E000E1D14176EFF0E5F
:101B70001E14186E1550161017101810D8A4C3EFA5
:101B80000DF0C5EF0DF0A2EF0DF0CDEF0DF01A0640
:101B9000D8901B361C361D361E361DBED2EF0DF0FA
:101BA000D4EF0DF0DCEF0DF0020E1A60DAEF0DF05D
:101BB000DCEF0DF0C7EF0DF01AB0E1EF0DF0E3EF41
:101BC0000DF0E4EF0DF01D9ED8901A321AC015F0FA
:101BD000166A176A186A15C018F0176A166A156A25
:101BE00015501B1216501C1217501D1218501E12A1
:101BF0001950D8B4FEEF0DF000EF0EF008EF0EF024
:101C000014BE07EF0EF005EF0EF008EF0EF01E8E7B
:101C10001BC011F01CC012F01DC013F01EC014F048
:101C20001200110E146E000E156EC9EF0EF0250E87
:101C30001A18D8B41EEF0EF020EF0EF02AEF0EF0B7
:101C40000DC0D9FF0EC0DAFF1AC0DFFF0D4A0E2A01
:101C5000C9EF0EF0000E166E0FC0F6FF10C0F7FFB2
:101C60000F4A102A0800F5CF1AF01A50000AD8B40B
:101C7000DAEF0EF0640AD8B444EF0EF00D0AD8B4CF
:101C800044EF0EF0C9EF0EF014C0D9FF15C0DAFF13
:101C9000DECF18F0DDCF19F0020E1426000E15224B
:101CA00019BE57EF0EF055EF0EF05DEF0EF0030E7C
:101CB0001612186C191ED8B0192A010E1A6E1A5075
:101CC000020D010EF324F66E080EF420F76E0900E3
:101CD000F550185C0900F5501958D8B072EF0EF0A5
:101CE00074EF0EF076EF0EF080EF0EF01A2A050E6C
:101CF0001A18D8A47EEF0EF080EF0EF05FEF0EF012
:101D000016C013F0030E1316D8B489EF0EF08BEF44
:101D10000EF093EF0EF00DC0D9FF0EC0DAFF2D0EBE
:101D2000DF6E0D4A0E2A1AC017F0C0EF0EF01750E2
:101D3000020D010EF324F66E080EF420F76E090072
:101D4000F5CF03F00A00F5CF04F018C001F019C078
:101D500002F0B1EC10F001C008F002C009F0000E72
:101D60000B6E0A0E0A6E20EC11F00850300F1A6E3E
:101D70000DC0D9FF0EC0DAFF1AC0DFFF0D4A0E2AD0
:101D800017061728D8A4C7EF0EF0C9EF0EF097EF8B
:101D90000EF00FC0F6FF10C0F7FF0F4A102A080020
:101DA000F5CF1AF01A50D8A4D8EF0EF0DAEF0EF0F3
:101DB00017EF0EF00DC0D9FF0EC0DAFF000EDF6E78
:101DC00012000DC0D9FF0EC0DAFFDF501A6E0D4AA7
:101DD0000E2A200E1A18D8B4F0EF0EF0F2EF0EF023
:101DE000E1EF0EF0090E1A18D8B4F9EF0EF0FBEF80
:101DF0000EF0E1EF0EF0000E166E000E176E000EE4
:101E0000186E000E196E000E156E2D0E1A18D8A43D
:101E10000CEF0FF00EEF0FF019EF0FF0152A0DC0B9
:101E2000D9FF0EC0DAFFDF501A6E0D4A0E2A48EFB6
:101E30000FF02B0E1A18D8A420EF0FF022EF0FF09E
:101E400048EF0FF00FEF0FF016C001F017C002F0CF
:101E500018C003F019C004F00A0E056E000E066EDD
:101E6000000E076E000E086EEBEC10F01AC011F0B9
:101E7000D00E112611500124166E000E0220176E8E
:101E8000000E0320186E000E0420196E0FEF0FF0E5
:101E90001A5048EC12F0D8B050EF0FF052EF0FF09C
:101EA00024EF0FF01550D8B458EF0FF05AEF0FF0A1
:101EB00075EF0FF016C011F017C012F018C013F034
:101EC00019C014F0111E121E131E141E112A000E2A
:101ED00012221322142211C00DF012C00EF013C0F2
:101EE0000FF014C010F07DEF0FF016C00DF017C00A
:101EF0000EF018C00FF019C010F0120003340434B3
:101F00000A6E0A50D8A487EF0FF089EF0FF093EF15
:101F10000FF0000E016E000E026E000E036E000E3A
:101F2000046E00EF10F001C005F002C006F003C01F
:101F300007F004C008F0200EA3EF0FF0D89008328D
:101F4000073206320532E82E9EEF0FF00550096E7B
:101F5000038EFF0E0116FF0E0216FF0E0316000E73
:101F60000416960E0A5E0ABEBAEF0FF0B8EF0FF035
:101F7000D0EF0FF00A50800A970FD8B0C2EF0FF0E1
:101F8000C4EF0FF0C6EF0FF089EF0FF0D8900432D6
:101F90000332023201320A3EC6EF0FF0E8EF0FF0D3
:101FA0001F0E0A64D6EF0FF0D8EF0FF0E0EF0FF03E
:101FB00089EF0FF0D89001360236033604360A0650
:101FC0000A50D8A4E6EF0FF0E8EF0FF0DAEF0FF0C9
:101FD0000950D8B4EEEF0FF0F0EF0FF0F8EF0FF07C
:101FE000041E031E021E016C000E022203220422A4
:101FF00001C001F002C002F003C003F004C004F00D
:102000001200000E0E6E0CBE0AEF10F008EF10F07A
:1020100010EF10F00B6C0C1ED8B00C2A010E0E6ED7
:102020000ABE17EF10F015EF10F01DEF10F0096C5D
:102030000A1ED8B00A2A010E0E1A000E106E000EEB
:102040000F6E0B500C10D8B428EF10F02AEF10F0E0
:1020500052EF10F0010E0D6E32EF10F0D8900B36EB
:102060000C360D2A0CAE37EF10F039EF10F02EEFD2
:1020700010F0D8900F3610360B50095C0C500A58EF
:10208000D8A045EF10F047EF10F04CEF10F00B50D8
:10209000095E0C500A5A0F80D8900C320B320D2E6C
:1020A00039EF10F00E50D8B458EF10F05AEF10F08E
:1020B0005EEF10F00F6C101ED8B0102A0FC009F0A0
:1020C00010C00AF0120001C003F0D8900336D89077
:1020D00003363C0E0316C250C30B0310C26EC2B2CD
:1020E00074EF10F078EF10F0036A032A79EF10F024
:1020F000036A010E046E032A80EF10F0D8900436B4
:10210000032E7EEF10F0C2B088EF10F08CEF10F0CD
:10211000056A052A8DEF10F0056A010E066E052A84
:1021200094EF10F0D8900636052E92EF10F006507E
:102130000410C212C2B29FEF10F0A1EF10F09AEF9C
:1021400010F0C350C4CF03F0046A03C004F0036A64
:102150000310076E0450086E07C001F008C002F0BB
:102160001200000E066E000E056E03500410D8B467
:10217000BCEF10F0BEEF10F0E6EF10F0010E076EAE
:10218000C6EF10F0D89003360436072A04AECBEF22
:1021900010F0CDEF10F0C2EF10F0D89005360636F3
:1021A0000350015C04500258D8A0D9EF10F0DBEFC7
:1021B00010F0E0EF10F00350015E0450025A058069
:1021C000D89004320332072ECDEF10F005C001F095
:1021D00006C002F01200000E096E000E0A6E000E1C
:1021E0000B6E000E0C6E01A0F8EF10F0FAEF10F07D
:1021F00002EF11F00550092606500A2207500B2263
:1022000008500C22D8900536063607360836D89086
:102210000432033202320132015002100310041062
:10222000D8A415EF11F017EF11F0F3EF10F009C07B
:1022300001F00AC002F00BC003F00CC004F0120061
:102240000A500B10D8B427EF11F029EF11F04DEF21
:1022500011F0010E0C6E31EF11F0D8900A360B36EA
:102260000C2A0BAE36EF11F038EF11F02DEF11F014
:102270000A50085C0B500958D8A041EF11F043EF09
:1022800011F047EF11F00A50085E0B50095AD89030
:102290000B320A320C2E38EF11F008C008F009C0DA
:1022A00009F0120068EF11F009C0F6FF0AC0F7FF4D
:1022B000F86A070EF76403D00800F55005D0F6CF92
:1022C000E9FFF7CFEAFFEF5081EC11F0094A0A2A43
:1022D00009C0F6FF0AC0F7FFF86A070EF76403D0DB
:1022E0000800F55005D0F6CFE9FFF7CFEAFFEF5031
:1022F0000009D8A47EEF11F080EF11F054EF11F037
:102300001200086E08C007F0F00E07168C500F0B75
:1023100007108C6E8C808C8200F08C92000E026E06
:10232000010E016ECDEC11F008C007F0073AF00E77
:1023300007168C500F0B07108C6E8C8200F08C925D
:10234000000E026E030E016ECDEC11F01200086E4D
:1023500008C007F0F00E07168C500F0B07108C6E9C
:102360008C908C8200F08C92000E026E010E016E39
:10237000CDEC11F008C007F0073AF00E07168C50AC
:102380000F0B07108C6E8C8200F08C92000E026E88
:10239000030E016ECDEC11F01200000E046E000E63
:1023A000036EE6EF11F0000E066E000E056E054A94
:1023B000062A065009E1A50E055CD8A0E2EF11F04F
:1023C000E4EF11F0D7EF11F0034A042A0150035C47
:1023D00002500458D8A0EFEF11F0F1EF11F0D3EF55
:1023E00011F012000E6E020E0E60F9EF11F0FBEF0D
:1023F00011F004EF12F00B500F0B80090F6E0F500D
:10240000A7EC11F00BEF12F00B500F0BC0090F6E81
:102410000F50A7EC11F00CC009F00DC00AF052ECFF
:1024200011F0120001C007F002C008F020EF12F016
:1024300007C0D9FF08C0DAFF03C0DFFF074A082A38
:102440000506D8A00606052806E10628D8A42BEF25
:1024500012F02DEF12F018EF12F01200060EF66EC9
:10246000250EF76E000EF86E00EE91F010EE10F0F3
:102470000900F5CFEEFFE550E150FAE1556A546AE4
:10248000536A526A516A000EF86E000127EF04F099
:10249000036E000E026E3A0E036051EF12F053EF1E
:1024A00012F05DEF12F02F0E036459EF12F05BEFA4
:1024B00012F05DEF12F0010E026E02C001F0013069
:1024C0001200000E956E000E026E0F0E016ECDEC26
:1024D00011F0020EA7EC11F0280EA7EC11F0010E7E
:1024E000A7EC11F00C0EA7EC11F0060EA7EC11F002
:1024F000120092680D0EC16E920EC06E000EC46E78
:10250000000EC36E12003132334134353642373853
:0E251000394320304544010EA7EC11F01200B3
:020000040020DA
:08000000FFFFFFFFFFFFFFFF00
:020000040030CA
:0E00000000091F1EFF8181FF0FC00FE00F409F
:00000001FF
