:020000040000FA
:0400000007EF00F016
:0A0008005D82FBED16F06BEF16F0C1
:100800000001000A006400E8031027496E67726562
:10081000736520436F6E7472612E00413D415554E3
:100820004F4D415449434F00413D4175746F6D61D7
:100830007469636F00504F542E44494D4D4552002A
:100840004269656E76656E69646F00434F4E43453D
:100850004449444F00423D4D414E55414C004445B2
:100860004E454741444F00534554504F494E540064
:10087000423D4D616E75616C0041434345534F00ED
:1008800054454D502E002564204300256420002A45
:100890000000010E086E010E36EC16F0400E066EDA
:1008A000080E076E1BEC15F0330E0D6EBB0E0C6EB2
:1008B000E00EE82EFED70C2EFCD70D2EFAD7010E37
:1008C00020EC17F0010E086E010E36EC16F00B0E40
:1008D000066E080E076E1BEC15F0C00E20EC17F02C
:1008E0005FEC0FF0596E820E0C6EDE0EE82EFED716
:1008F0000C2EFCD7200E5918D8B481EF04F083EFEA
:1009000004F01EEF07F0410E5918D8B48AEF04F036
:100910008CEF04F01EEF07F0420E5918D8B493EF95
:1009200004F095EF04F01EEF07F0430E5918D8B409
:100930009CEF04F09EEF04F01EEF07F0440E5918F0
:10094000D8B4A5EF04F0A7EF04F01EEF07F0450EB2
:100950005918D8B4AEEF04F0B0EF04F01EEF07F072
:10096000350E5918D8A4B7EF04F0B9EF04F0FAEF38
:1009700005F0474A482A020E086E475036EC16F03A
:100980008F0E066E080E076E1BEC15F0020E086E39
:10099000010E36EC16F08F0E066E080E076E1BEC7D
:1009A00015F05FEC0FF0596E820E0C6EDE0EE82E25
:1009B000FED70C2EFCD7200E5918D8B4E2EF04F065
:1009C000E4EF04F0D1EF04F0410E5918D8B4EBEF86
:1009D00004F0EDEF04F0D1EF04F0420E5918D8B452
:1009E000F4EF04F0F6EF04F0D1EF04F0430E5918E1
:1009F000D8B4FDEF04F0FFEF04F0D1EF04F0440EA3
:100A00005918D8B406EF05F008EF05F0D1EF04F05F
:100A1000450E5918D8B40FEF05F011EF05F0D1EFDE
:100A200004F0350E5918D8A418EF05F01AEF05F0A8
:100A300052EF06F0474A482A020E086E475036EC3D
:100A400016F08F0E066E080E076E1BEC15F0020EE8
:100A5000086E010E36EC16F08F0E066E080E076E4D
:100A60001BEC15F05FEC0FF0596E820E0C6EDE0E73
:100A7000E82EFED70C2EFCD7200E5918D8B443EF21
:100A800005F045EF05F032EF05F0410E5918D8B4E6
:100A90004CEF05F04EEF05F032EF05F0420E59181D
:100AA000D8B455EF05F057EF05F032EF05F0430EDF
:100AB0005918D8B45EEF05F060EF05F032EF05F09D
:100AC000440E5918D8B467EF05F069EF05F032EF1E
:100AD00005F0450E5918D8B470EF05F072EF05F027
:100AE00032EF05F0350E5918D8A479EF05F07BEFF9
:100AF00005F0AAEF06F0474A482A020E086E475052
:100B000036EC16F08F0E066E080E076E1BEC15F015
:100B1000020E086E020E36EC16F08F0E066E080EF0
:100B2000076E1BEC15F05FEC0FF0596E820E0C6E29
:100B3000DE0EE82EFED70C2EFCD7200E5918D8B4A6
:100B4000A4EF05F0A6EF05F093EF05F0410E59185C
:100B5000D8B4ADEF05F0AFEF05F093EF05F0420E1E
:100B60005918D8B4B6EF05F0B8EF05F093EF05F0DB
:100B7000430E5918D8B4BFEF05F0C1EF05F093EF5D
:100B800005F0440E5918D8B4C8EF05F0CAEF05F0C7
:100B900093EF05F0450E5918D8B4D1EF05F0D3EF17
:100BA00005F093EF05F0350E5918D8A4DAEF05F0EB
:100BB000DCEF05F002EF07F0474A482A020E086E04
:100BC000475036EC16F08F0E066E080E076E1BECC3
:100BD00015F0020E086E030E36EC16F08F0E066E40
:100BE000080E076E1BEC15F0000E566E010E556ECA
:100BF0001EEF07F0474A482A020E086E475036ECAF
:100C000016F08F0E066E080E076E1BEC15F0020E26
:100C1000086E010E36EC16F08F0E066E080E076E8B
:100C20001BEC15F05FEC0FF0596E820E0C6EDE0EB1
:100C3000E82EFED70C2EFCD7200E5918D8B423EF7F
:100C400006F025EF06F012EF06F0410E5918D8B461
:100C50002CEF06F02EEF06F012EF06F0420E5918B8
:100C6000D8B435EF06F037EF06F012EF06F0430E7A
:100C70005918D8B43EEF06F040EF06F012EF06F038
:100C8000440E5918D8B447EF06F049EF06F012EFBA
:100C900006F0450E5918D8B450EF06F052EF06F0A2
:100CA00012EF06F0474A482A020E086E475036EC0B
:100CB00016F08F0E066E080E076E1BEC15F0020E76
:100CC000086E010E36EC16F08F0E066E080E076EDB
:100CD0001BEC15F05FEC0FF0596E820E0C6EDE0E01
:100CE000E82EFED70C2EFCD7200E5918D8B47BEF77
:100CF00006F07DEF06F06AEF06F0410E5918D8B401
:100D000084EF06F086EF06F06AEF06F0420E5918FF
:100D1000D8B48DEF06F08FEF06F06AEF06F0430EC1
:100D20005918D8B496EF06F098EF06F06AEF06F07F
:100D3000440E5918D8B49FEF06F0A1EF06F06AEF01
:100D400006F0450E5918D8B4A8EF06F0AAEF06F041
:100D50006AEF06F0474A482A020E086E475036EC02
:100D600016F08F0E066E080E076E1BEC15F0020EC5
:100D7000086E020E36EC16F08F0E066E080E076E29
:100D80001BEC15F05FEC0FF0596E820E0C6EDE0E50
:100D9000E82EFED70C2EFCD7200E5918D8B4D3EF6E
:100DA00006F0D5EF06F0C2EF06F0410E5918D8B4A0
:100DB000DCEF06F0DEEF06F0C2EF06F0420E591847
:100DC000D8B4E5EF06F0E7EF06F0C2EF06F0430E09
:100DD0005918D8B4EEEF06F0F0EF06F0C2EF06F0C7
:100DE000440E5918D8B4F7EF06F0F9EF06F0C2EF49
:100DF00006F0450E5918D8B400EF07F002EF07F0DF
:100E0000C2EF06F0474A482A020E086E475036ECF9
:100E100016F08F0E066E080E076E1BEC15F0020E14
:100E2000086E030E36EC16F08F0E066E080E076E77
:100E30001BEC15F0000E566E000E556E5504561044
:100E4000D8A425EF07F027EF07F04EEF07F0010ECB
:100E500020EC17F0010E086E010E36EC16F0790E3C
:100E6000066E080E076E1BEC15F0020E086E010EE2
:100E700036EC16F04B0E066E080E076E1BEC15F0E6
:100E80001A0E0D6E5E0E0C6E6E0EE82EFED70C2E38
:100E9000FCD70D2EFAD700D093EF07F0555056101F
:100EA000D8A455EF07F057EF07F062EF04F0010EFA
:100EB00020EC17F0010E086E010E36EC16F0790EDC
:100EC000066E080E076E1BEC15F0020E086E010E82
:100ED00036EC16F05E0E066E080E076E1BEC15F073
:100EE0001A0E0D6E5E0E0C6E6E0EE82EFED70C2ED8
:100EF000FCD70D2EFAD700D0010E20EC17F0960E7D
:100F0000026E000E036E000E056E000E046E000EE3
:100F1000076E040E066E66EC17F0000E486E000EAB
:100F2000476E62EF04F0010E20EC17F00D0E0C6E10
:100F3000FC0EE82EFED70C2EFCD71200F088010E16
:100F4000086E010E36EC16F0800E066E080E076E67
:100F50001BEC15F0020E086E010E36EC16F0350E85
:100F6000066E080E076E1BEC15F0040EC26EC280F2
:100F7000210EE82EFED700F0C282C2B2C2EF07F007
:100F8000C4EF07F0BDEF07F0C3CF02F0C4CF03F00A
:100F9000046A056A000EA7EC11F002C035F003C028
:100FA00036F004C037F005C038F035C002F036C066
:100FB00003F037C004F038C005F0000E066E000ED6
:100FC000076EFA0E086E430E096ED0EC09F002C0EF
:100FD00035F003C036F004C037F005C038F035C036
:100FE0001BF036C01CF037C01DF038C01EF0000EDC
:100FF0001F6E000E206E800E216E440E226EE5ECF8
:101000000BF01BC035F01CC036F01DC037F01EC001
:1010100038F08C0E1A6E000E1B6E860E1C6E080EBB
:101020001D6E35C002F036C003F037C004F038C082
:1010300005F0BFEC13F002C01EF003C01FF0CDECB2
:1010400010F0010E086E070E36EC16F08C0E066ED0
:10105000000E076E1BEC15F0C290210EE82EFED795
:1010600000F0040EC26EC280210EE82EFED700F002
:10107000C282C2B23EEF08F040EF08F039EF08F04C
:10108000C3CF02F0C4CF03F0046A056A000EA7ECD8
:1010900011F002C035F003C036F004C037F005C0CF
:1010A00038F035C002F036C003F037C004F038C065
:1010B00005F0000E066E000E076EFA0E086E430E67
:1010C000096ED0EC09F002C035F003C036F004C060
:1010D00037F005C038F035C01BF036C01CF037C003
:1010E0001DF038C01EF0000E1F6E000E206E800E28
:1010F000216E440E226EE5EC0BF01BC035F01CC0D7
:1011000036F01DC037F01EC038F08C0E1A6E000E7F
:101110001B6E860E1C6E080E1D6E35C002F036C0AA
:1011200003F037C004F038C005F0BFEC13F002C084
:101130001EF003C01FF0CDEC10F0010E086E070E7C
:1011400036EC16F08C0E066E000E076E1BEC15F0DA
:10115000C290210EE82EFED700F0000EC26EC280B3
:10116000210EE82EFED700F0C282C2B2BAEF08F01C
:10117000BCEF08F0B5EF08F0C3CF02F0C4CF03F026
:10118000046A056A000EA7EC11F002C060F003C00B
:1011900061F004C062F005C063F0C3CF57F0C4CF64
:1011A00058F0000E066E000E076EC80E086E420E56
:1011B000096E60C002F061C003F062C004F063C059
:1011C00005F0D0EC09F002C01BF003C01CF004C015
:1011D0001DF005C01EF0000E1F6EC00E206E7F0EAB
:1011E000216E440E226EE5EC0BF01BC064F01CC0B7
:1011F00065F01DC066F01EC067F0820E1A6E000E0C
:101200001B6E8B0E1C6E080E1D6E64C002F065C056
:1012100003F066C004F067C005F0BFEC13F00250A5
:1012200046080C6E0350D8A0E82A00080D6E000E88
:101230000F6E640E0E6EF5EC17F00CC012F00DC0C0
:1012400013F0000E156E460E146EB9EC14F012C0B9
:101250001EF013C01FF0CDEC10F0020E086E0D0E44
:1012600036EC16F0820E066E000E076E1BEC15F0C3
:10127000C290210EE82EFED700F0000EC26EC28092
:10128000210EE82EFED700F0C282C2B24AEF09F06A
:101290004CEF09F045EF09F0C3CF02F0C4CF03F0E3
:1012A000046A056A000EA7EC11F002C060F003C0EA
:1012B00061F004C062F005C063F0C3CF57F0C4CF43
:1012C00058F0000E066E000E076EC80E086E420E35
:1012D000096E60C002F061C003F062C004F063C038
:1012E00005F0D0EC09F002C01BF003C01CF004C0F4
:1012F0001DF005C01EF0000E1F6EC00E206E7F0E8A
:10130000216E440E226EE5EC0BF01BC064F01CC095
:1013100065F01DC066F01EC067F0820E1A6E000EEA
:101320001B6E8B0E1C6E080E1D6E64C002F065C035
:1013300003F066C004F067C005F0BFEC13F0025084
:1013400046080C6E0350D8A0E82A00080D6E000E67
:101350000F6E640E0E6EF5EC17F00CC012F00DC09F
:1013600013F0000E156E460E146EB9EC14F012C098
:101370001EF013C01FF0CDEC10F0020E086E0D0E23
:1013800036EC16F0820E066E000E076E1BEC15F0A2
:10139000C290210EE82EFED700F0B5EF07F0120044
:1013A0000550800B0E6E05500524146E04AEDBEF65
:1013B00009F0DDEF09F0DEEF09F014801450D8B425
:1013C000E4EF09F0E6EF09F0F9EF09F01428D8A4EA
:1013D000ECEF09F0EEEF09F0F6EF09F0000E026E07
:1013E000000E036E000E046E000E056E048E01EFFB
:1013F0000AF0000E026E000E036E000E046E000E68
:10140000056E0950800B0E1A09500924136E08AEA0
:101410000CEF0AF00EEF0AF00FEF0AF013801350F2
:10142000D8B415EF0AF017EF0AF02AEF0AF01328E4
:10143000D8A41DEF0AF01FEF0AF027EF0AF0000E04
:10144000066E000E076E000E086E000E096E088E06
:1014500032EF0AF0000E066E000E076E000E086EE8
:10146000000E096E1350D8B438EF0AF03AEF0AF0C4
:1014700042EF0AF01450D8A440EF0AF042EF0AF00D
:101480004CEF0AF0000E026E000E036E000E046EAA
:10149000000E056EE4EF0BF008500202F3CF19F0D6
:1014A000F4CF1AF019500F6E106A116A126A1A50AE
:1014B000156E166A176A186A07500302F3CF19F0FF
:1014C000F4CF1AF019500F26000E1022112212220A
:1014D0001A501526000E1622172218220650040252
:1014E000F3CF19F0F4CF1AF019500F26000E102286
:1014F000112212221A501526000E16221722182227
:1015000011C012F010C011F00FC010F00F6A065099
:101510000302F3CF19F0F4CF1AF019500F261A5026
:101520001022000E1122000E122207500202F3CFE9
:1015300019F0F4CF1AF019500F261A501022000E8D
:101540001122000E122211C012F010C011F00FC0B3
:1015500010F00F6A06500202F3CF19F0F4CF1AF020
:1015600019500F261A501022000E1122000E1222BE
:1015700008500302F3CF19F0F4CF1AF019501526D2
:101580001A501622000E1722000E182207500402CD
:10159000F3CF19F0F4CF1AF0195015261A5016226D
:1015A000000E1722000E182208500402F3CF19F083
:1015B000F4CF1AF019500A6E1A500B6E0C6A0D6AAD
:1015C0000CC00DF00BC00CF00AC00BF00A6A0A50F8
:1015D00015260B5016220C5017220D5018220FC042
:1015E0000AF010C00BF011C00CF012C00DF0190E73
:1015F000FFEF0AF0D8900D320C320B320A32E82E8F
:10160000FAEF0AF00A5015260B5016220C5017223A
:101610000D50182211C012F010C011F00FC010F0C0
:101620000F6A135014C00AF00B6A0A26000E0B2230
:10163000820E0A24196EFF0E0B201A6E35EF0BF086
:10164000D890153616361736183612AE2AEF0BF02C
:101650002CEF0BF02DEF0BF01580D8900F361036D5
:10166000113612361906D8A01A0617AE3AEF0BF04B
:101670003CEF0BF020EF0BF0000E136E12AE43EFB9
:101680000BF045EF0BF069EF0BF0FF0E0F140A6E35
:10169000FF0E10140B6EFF0E11140C6E7F0E121441
:1016A0000D6E0A500B100C100D10D8B45AEF0BF041
:1016B0005CEF0BF060EF0BF0010E136E69EF0BF0B7
:1016C00015A065EF0BF067EF0BF069EF0BF05CEF27
:1016D0000BF01350D8B46FEF0BF071EF0BF095EFE8
:1016E0000BF0010E1526000E16221722182218A044
:1016F0007CEF0BF07EEF0BF095EF0BF015C00AF0CE
:1017000016C00BF017C00CF018C00DF00D340D32E0
:101710000C320B320A320AC015F00BC016F00CC0A6
:1017200017F00DC018F0194A1A2A1ABEA0EF0BF0D4
:101730001A5008E11928D8A0A0EF0BF0A2EF0BF087
:10174000ACEF0BF0000E156E000E166E800E176ECD
:101750007F0E186EDAEF0BF01ABEB9EF0BF01A50CD
:1017600006E11904D8B0B7EF0BF0B9EF0BF0C5EFF5
:101770000BF0000E156E000E166E000E176E000EAA
:10178000186E000E0E6EDAEF0BF019C014F0FF0E9B
:101790001516FF0E16167F0E1716000E181614A03B
:1017A000D4EF0BF0D6EF0BF0D7EF0BF0178ED890ED
:1017B0001430186E0E50181215C002F016C003F047
:1017C00017C004F018C005F012001E50800B2B6EDD
:1017D0001E501E24326E1DAEF0EF0BF0F2EF0BF038
:1017E000F3EF0BF032803250D8B4F9EF0BF0FBEF8F
:1017F0000BF010EF0CF03228D8A401EF0CF003EF3F
:101800000CF00BEF0CF0000E1B6E000E1C6E000EA9
:101810001D6E000E1E6E1D8E000E1E6E18EF0CF05B
:10182000000E1B6E000E1C6E000E1D6E000E1E6E56
:101830002250800B2B1A22502224336E21AE23EF2C
:101840000CF025EF0CF026EF0CF033803350D8B4B9
:101850002CEF0CF02EEF0CF043EF0CF03328D8A453
:1018600034EF0CF036EF0CF03EEF0CF0000E1F6E74
:10187000000E206E000E216E000E226E218E000ED4
:10188000226E4BEF0CF0000E1F6E000E206E000E4D
:10189000216E000E226E1F50201021102210D8A49D
:1018A00054EF0CF056EF0CF06EEF0CF0000E1B6EC8
:1018B000000E1C6E000E1D6E000E1E6E800E1D12A0
:1018C0007F0E1E122B501E121BC01BF01CC01CF0E2
:1018D0001DC01DF01EC01EF0B1EF0DF03250D8A497
:1018E00074EF0CF076EF0CF080EF0CF0000E1B6E36
:1018F000000E1C6E000E1D6E000E1E6EB1EF0DF080
:10190000335032C023F0246A235E000E245A7F0E27
:1019100023242C6E000E24202D6E1BC027F01CC02B
:1019200028F01DC029F01EC02AF0000E1B6E000E0C
:101930001C6E000E1D6E000E1E6E000E2E6E000E32
:101940002F6E000E306E000E316E000E336EE1EF22
:101950000CF03350D8B4AFEF0CF0B1EF0CF0C8EF8F
:101960000CF0D8902736283629362A36D8901B36E0
:101970001C361D361E3631AEC0EF0CF0C2EF0CF037
:10198000C3EF0CF01B80D8902E362F363036313610
:101990001F50275C205028582150295822502A587F
:1019A000D8A0D5EF0CF0D7EF0CF0E0EF0CF0318CB5
:1019B0001F50275E2050285A2150295A22502A5A57
:1019C000332A190E3364E7EF0CF0E9EF0CF0A9EFBE
:1019D0000CF02750281029102A10D8B4F2EF0CF080
:1019E000F4EF0CF00CEF0DF02E800CEF0DF0D89012
:1019F0001B361C361D361E3631AE01EF0DF003EFDF
:101A00000DF004EF0DF01B80D8902E362F363036B7
:101A100031362C06D8A02D061DAE11EF0DF013EFB8
:101A20000DF0F7EF0CF0000E336E31AE1AEF0DF043
:101A30001CEF0DF040EF0DF0FF0E2E14236EFF0E85
:101A40002F14246EFF0E3014256E7F0E3114266E77
:101A50002350241025102610D8B431EF0DF033EFA9
:101A60000DF037EF0DF0010E336E40EF0DF01BA0BF
:101A70003CEF0DF03EEF0DF040EF0DF033EF0DF0C9
:101A80003350D8B446EF0DF048EF0DF06CEF0DF089
:101A9000010E1B26000E1C221D221E221EA053EF2B
:101AA0000DF055EF0DF06CEF0DF01BC023F01CC0D6
:101AB00024F01DC025F01EC026F026342632253223
:101AC0002432233223C01BF024C01CF025C01DF09B
:101AD00026C01EF02C4A2D2A2DBE77EF0DF02D507A
:101AE00008E12C28D8A077EF0DF079EF0DF084EF06
:101AF0000DF0000E2D6E2C68000E1B6E000E1C6E7D
:101B0000000E1D6E000E1E6E2DBE91EF0DF02D50BD
:101B100006E12C04D8B08FEF0DF091EF0DF09FEFA0
:101B20000DF0000E2D6E000E2C6E000E1B6E000EC2
:101B30001C6E000E1D6E000E1E6E000E2B6E2CC055
:101B400032F032A0A6EF0DF0A8EF0DF0ABEF0DF0E4
:101B50001D8EACEF0DF01D9ED89032301E6E62EFE0
:101B60000CF01200010E086E010E36EC16F0670E36
:101B7000066E080E076E1BEC15F0010E086E0A0EBD
:101B800036EC16F05FEC0FF04B6EC30E346ECD0EDC
:101B9000E82EFED7342EFCD700F0200E4B18D8B418
:101BA000D4EF0DF0D6EF0DF0C2EF0DF0410E4B1853
:101BB000D8B4DDEF0DF0DFEF0DF00DEF0EF0420EBB
:101BC0004B18D8B4E6EF0DF0E8EF0DF00DEF0EF086
:101BD000430E4B18D8B4EFEF0DF0F1EF0DF00DEF11
:101BE0000EF0440E4B18D8B4F8EF0DF0FAEF0DF0EC
:101BF0000DEF0EF0450E4B18D8B401EF0EF003EFC9
:101C00000EF00DEF0EF0510E4324D96E000E44205D
:101C1000DA6E4BC0DFFF434A442A450E4B18D8A466
:101C200014EF0EF016EF0EF0C2EF0DF0510E0E6E27
:101C3000000E0F6E22EC13F00EC070F00FC071F0AA
:101C400010C072F011C073F0020E086E010E36EC77
:101C500016F0800E066E080E076E1BEC15F0F0886D
:101C6000040EC26EC280210EE82EFED700F0C282A2
:101C7000C2B23DEF0EF03FEF0EF038EF0EF0C3CFE3
:101C800002F0C4CF03F0046A056A000EA7EC11F05D
:101C900002C035F003C036F004C037F005C038F09C
:101CA00035C002F036C003F037C004F038C005F08C
:101CB000000E066E000E076EFA0E086E430E096ED9
:101CC000D0EC09F002C035F003C036F004C037F0A4
:101CD00005C038F035C01BF036C01CF037C01DF011
:101CE00038C01EF0000E1F6E000E206E800E216E9A
:101CF000440E226EE5EC0BF01BC035F01CC036F034
:101D00001DC037F01EC038F0C290040EC26EC280F3
:101D1000210EE82EFED700F0C282C2B292EF0EF082
:101D200094EF0EF08DEF0EF0C3CF02F0C4CF03F0AE
:101D3000046A056A000EA7EC11F002C035F003C07A
:101D400036F004C037F005C038F035C002F036C0B8
:101D500003F037C004F038C005F0000E066E000E28
:101D6000076EFA0E086E430E096ED0EC09F002C041
:101D700035F003C036F004C037F005C038F035C088
:101D80001BF036C01CF037C01DF038C01EF0000E2E
:101D90001F6E000E206E800E216E440E226EE5EC4A
:101DA0000BF01BC035F01CC036F01DC037F01EC054
:101DB00038F08C0E1A6E000E1B6E860E1C6E080E0E
:101DC0001D6E35C002F036C003F037C004F038C0D5
:101DD00005F0BFEC13F002C01EF003C01FF0CDEC05
:101DE00010F0020E086E070E36EC16F08C0E066E22
:101DF000000E076E1BEC15F0C29035C002F036C025
:101E000003F037C004F038C005F0BFEC13F002C097
:101E100041F003C042F041500001705D3F6E4250FE
:101E20007159406E3FC00CF040C00DF0030E0F6EB4
:101E30000E68F5EC17F00CC03FF00DC040F03F50BD
:101E400052083F6E4050D8A0E82A0808406E40BEB5
:101E500033EF0FF0530E3F5C080E4058D8A033EF1D
:101E60000FF035EF0FF03BEF0FF0080E406E520E03
:101E70003F6E46EF0FF040BE42EF0FF040EF0FF025
:101E800046EF0FF0000E406E000E3F6E3FC057F061
:101E900040C058F0A60EE82EFED700D08C0E026E81
:101EA000000E036E000E056E000E046E000E076E2F
:101EB0000A0E066E66EC17F030EF0EF01200F00E10
:101EC000956EF00E8C6E8350F00B506EF00E501825
:101ED000D8A46DEF0FF06FEF0FF063EF0FF08350AA
:101EE000F00B506EF00E5018D8A479EF0FF07BEF86
:101EF0000FF063EF0FF0F00E8C6E8350F00B506E0E
:101F0000F00E5018D8B487EF0FF089EF0FF07DEF87
:101F10000FF08350F00B506EF00E5018D8B493EFC2
:101F20000FF095EF0FF07DEF0FF0820E076EDE0ED3
:101F3000E82EFED7072EFCD78350F00B506EFE0E16
:101F40008C6E8350F00B506E50C04EF0F00E501857
:101F5000D8B4ADEF0FF0AFEF0FF0C1EF0FF0000E00
:101F60004F6EB6EF0FF08350F00B4E6EF00E4E1822
:101F7000D8A4BDEF0FF0BFEF0FF0B3EF0FF025EFD8
:101F800010F0FD0E8C6E8350F00B506E50C04EF072
:101F9000F00E5018D8B4CFEF0FF0D1EF0FF0E3EF01
:101FA0000FF0010E4F6ED8EF0FF08350F00B4E6E16
:101FB000F00E4E18D8A4DFEF0FF0E1EF0FF0D5EFE1
:101FC0000FF025EF10F0FB0E8C6E8350F00B506E6F
:101FD00050C04EF0F00E5018D8B4F1EF0FF0F3EF00
:101FE0000FF005EF10F0020E4F6EFAEF0FF0835076
:101FF000F00B4E6EF00E4E18D8A401EF10F003EF68
:1020000010F0F7EF0FF025EF10F0F70E8C6E835005
:10201000F00B506E50C04EF0F00E5018D8B413EFC5
:1020200010F015EF10F09FEF0FF0030E4F6E1CEF46
:1020300010F08350F00B4E6EF00E4E18D8A423EF24
:1020400010F025EF10F019EF10F0E00E5018D8A4A2
:102050002CEF10F02EEF10F057EF10F04D50D8A4E9
:1020600034EF10F036EF10F041EF10F04F50040D48
:102070009A0EF324D96E000EF420DA6EDF5015ECC0
:1020800018F0030E4F18D8A448EF10F04AEF10F0E4
:102090004CEF10F0000E4D6E4F50040D9A0EF324CD
:1020A000D96E000EF420DA6EDF50CCEF10F0D00EB7
:1020B0005018D8A45EEF10F060EF10F07EEF10F033
:1020C0004D50D8A466EF10F068EF10F073EF10F0E9
:1020D0004F50040D9B0EF324D96E000EF420DA6EDF
:1020E000DF5015EC18F04F50040D9B0EF324D96E01
:1020F000000EF420DA6EDF50CCEF10F0B00E501866
:10210000D8A485EF10F087EF10F0B0EF10F0030EB9
:102110004F18D8A48EEF10F090EF10F092EF10F05F
:10212000010E4D6E4D50D8A498EF10F09AEF10F0BC
:10213000A5EF10F04F50040D9C0EF324D96E000E45
:10214000F420DA6EDF5015EC18F04F50040D9C0EA1
:10215000F324D96E000EF420DA6EDF50CCEF10F0CD
:102160004D50D8A4B6EF10F0B8EF10F0C3EF10F058
:102170004F50040D9D0EF324D96E000EF420DA6E3C
:10218000DF5015EC18F04F50040D9D0EF324D96E5E
:10219000000EF420DA6EDF5012001E0E226E000ECA
:1021A000236E8FEF11F0250E2818D8B4DAEF10F057
:1021B000DCEF10F0E6EF10F01AC0D9FF1BC0DAFF19
:1021C00028C0DFFF1A4A1B2A8FEF11F0000E246E81
:1021D0001CC0F6FF1DC0F7FF1C4A1D2A0800F5CFE2
:1021E00028F02850206E216A2150000AD8B4FBEF55
:1021F00010F08FEF11F02050000AD8B4A0EF11F0CA
:10220000640AD8B40AEF11F00D0AD8B40AEF11F03D
:102210008FEF11F022C0D9FF23C0DAFFDECF26F006
:10222000DDCF27F0020E2226000E232227BE1DEF4F
:1022300011F01BEF11F023EF11F0030E2412266CA6
:10224000271ED8B0272A010E286E2850020D010E35
:10225000F324F66E080EF420F76E0900F550265CA4
:102260000900F5502758D8B038EF11F03AEF11F0C7
:102270003CEF11F046EF11F0282A050E2818D8A4DB
:1022800044EF11F046EF11F025EF11F024C020F0DB
:10229000030E2016D8B44FEF11F051EF11F059EFA3
:1022A00011F01AC0D9FF1BC0DAFF2D0EDF6E1A4ADB
:1022B0001B2A28C025F086EF11F02550020D010ED3
:1022C000F324F66E080EF420F76E0900F5CF04F043
:1022D0000A00F5CF05F026C002F027C003F0C7ECD6
:1022E00015F002C009F003C00AF0000E0C6E0A0ED1
:1022F0000B6E9FEC16F00950300F286E1AC0D9FFF4
:102300001BC0DAFF28C0DFFF1A4A1B2A2506252832
:10231000D8A48DEF11F08FEF11F05DEF11F01CC01C
:10232000F6FF1DC0F7FF1C4A1D2A0800F5CF28F054
:102330002850D8A49EEF11F0A0EF11F0D3EF10F0C9
:102340001AC0D9FF1BC0DAFF000EDF6E12000A6E42
:102350000A50D8B4AEEF11F0B0EF11F0D2EF11F097
:1023600005BEB7EF11F0B5EF11F0D2EF11F002C0DA
:1023700006F003C007F004C008F005C009F0061E0F
:10238000071E081E091E062A000E0722082209221F
:1023900006C00CF007C00DF008C00EF009C00FF029
:1023A000DAEF11F002C00CF003C00DF004C00EF023
:1023B00005C00FF00250031004100510D8A4E3EF7D
:1023C00011F0E5EF11F0EFEF11F0000E026E000ECC
:1023D000036E000E046E000E056E80EF12F0960E76
:1023E0000B6EF9EF11F00B2AD8900F320E320D322E
:1023F0000C32000E0C14066E000E0D14076E000E4B
:102400000E14086EFE0E0F14096E06500710081009
:102410000910D8A40EEF12F010EF12F0F3EF11F044
:102420001EEF12F00B2A010E0C26000E0D220E22BA
:102430000F22D8900F320E320D320C32000E0C14D7
:10244000066E000E0D14076E000E0E14086EFF0EC1
:102450000F14096E0650071008100910D8A433EFA6
:1024600012F035EF12F012EF12F03DEF12F00B0602
:10247000D8900C360D360E360F360EBE42EF12F0E7
:1024800044EF12F04CEF12F0020E0B604AEF12F024
:102490004CEF12F037EF12F00BB051EF12F053EF98
:1024A00012F054EF12F00E9ED8900B320BC006F0D3
:1024B000076A086A096A06C009F0086A076A066AB4
:1024C00006500C1207500D1208500E1209500F1230
:1024D0000A50D8B46EEF12F070EF12F078EF12F0ED
:1024E00005BE77EF12F075EF12F078EF12F00F8E55
:1024F0000CC002F00DC003F00EC004F00FC005F0D8
:102500001200010E086E010E36EC16F01B0E066E60
:10251000080E076E1BEC15F0020E086E010E36EC6D
:1025200016F0550E066E080E076E1BEC15F0020E27
:102530000001AB6F450EAA6FA90EE82EFED7AA2F99
:10254000FCD7AB2FFAD700D05FEC0FF04B6EC30E69
:102550000001AA6FCD0EE82EFED7AA2FFCD7200EC1
:102560004B18D8B4B6EF12F0B8EF12F0A4EF12F097
:10257000410E4B18D8A4BFEF12F0C1EF12F0E2EFFA
:1025800012F0010E20EC17F0010E086E010E36EC71
:1025900016F0280E066E080E076E1BEC15F0000EE6
:1025A000466E010E456E1A0E0001AB6F5E0EAA6FED
:1025B0006E0EE82EFED7AA2FFCD7AB2FFAD700F06D
:1025C00001EF13F0420E4B18D8A4E9EF12F0EBEF35
:1025D00012F0FFEF12F0010E20EC17F0010E086E62
:1025E000010E36EC16F0700E066E080E076E1BEC30
:1025F00015F0000E466E020E456ED3EF12F0A4EFFA
:1026000012F0200E4B6E010E20EC17F04504461020
:10261000D8A40DEF13F00FEF13F013EF13F0B2EC9B
:102620000DF006EF13F0020E45184610D8A41BEF6C
:1026300013F01DEF13F006EF13F09EEC07F006EF1A
:1026400013F012000EC0D9FF0FC0DAFFDF501B6E6F
:102650000E4A0F2A200E1B18D8B431EF13F033EFB7
:1026600013F022EF13F0090E1B18D8B43AEF13F051
:102670003CEF13F022EF13F0000E176E000E186EF1
:10268000000E196E000E1A6E000E166E2D0E1B181F
:10269000D8A44DEF13F04FEF13F05AEF13F0162AB2
:1026A0000EC0D9FF0FC0DAFFDF501B6E0E4A0F2A93
:1026B00089EF13F02B0E1B18D8A461EF13F063EF12
:1026C00013F089EF13F050EF13F017C002F018C0A9
:1026D00003F019C004F01AC005F00A0E066E000ED1
:1026E000076E000E086E000E096E01EC16F01BC09E
:1026F00012F0D00E122612500224176E000E032084
:10270000186E000E0420196E000E05201A6E50EF90
:1027100013F01B509EEC17F0D8B091EF13F093EF2D
:1027200013F065EF13F01650D8B499EF13F09BEF48
:1027300013F0B6EF13F017C012F018C013F019C061
:1027400014F01AC015F0121E131E141E151E122AA4
:10275000000E13221422152212C00EF013C00FF027
:1027600014C010F015C011F0BEEF13F017C00EF03A
:1027700018C00FF019C010F01AC011F01200043484
:1027800005340B6E0B50D8A4C8EF13F0CAEF13F04A
:10279000D4EF13F0000E026E000E036E000E046EF6
:1027A000000E056E41EF14F002C006F003C007F002
:1027B00004C008F005C009F0200EE4EF13F0D89033
:1027C0000932083207320632E82EDFEF13F00650E6
:1027D0000A6E048EFF0E0216FF0E0316FF0E04167D
:1027E000000E0516960E0B5E0BBEFBEF13F0F9EF15
:1027F00013F011EF14F00B50800A970FD8B003EFCD
:1028000014F005EF14F007EF14F0CAEF13F0D890AE
:1028100005320432033202320B3E07EF14F029EF87
:1028200014F01F0E0B6417EF14F019EF14F021EFE2
:1028300014F0CAEF13F0D89002360336043605368A
:102840000B060B50D8A427EF14F029EF14F01BEF60
:1028500014F00A50D8B42FEF14F031EF14F039EF20
:1028600014F0051E041E031E026C000E0322042237
:10287000052202C002F003C003F004C004F005C04A
:1028800005F012000A6E0AC05BF0000E08EC18F0AA
:10289000020E096E040E086EBA0EE82EFED7082E40
:1028A000FCD7092EFAD700D0030E20EC17F0210E2A
:1028B000086E760EE82EFED7082EFCD700D0030E49
:1028C00020EC17F0210E086E760EE82EFED7082EAB
:1028D000FCD700D0030E20EC17F0210E086E760E08
:1028E000E82EFED7082EFCD700D0020E20EC17F001
:1028F000210E086E760EE82EFED7082EFCD700D0EB
:10290000280E20EC17F0020E096E450E086EAA0E76
:10291000E82EFED7082EFCD7092EFAD70C0E20EC95
:1029200017F0020E096E450E086EAA0EE82EFED7AD
:10293000082EFCD7092EFAD7010E20EC17F0020E54
:10294000096E450E086EAA0EE82EFED7082EFCD79B
:10295000092EFAD7060E20EC17F0020E096E450E6E
:10296000086EAA0EE82EFED7082EFCD7092EFAD73D
:102970001200000E176E15BEC2EF14F0C0EF14F077
:10298000C8EF14F0146C151ED8B0152A010E176E7E
:1029900013BECFEF14F0CDEF14F0D5EF14F0126C9E
:1029A000131ED8B0132A010E171A000E196E000E4E
:1029B000186E14501510D8B4E0EF14F0E2EF14F0D4
:1029C0000AEF15F0010E166EEAEF14F0D8901436E7
:1029D0001536162A15AEEFEF14F0F1EF14F0E6EF0E
:1029E00014F0D890183619361450125C155013583C
:1029F000D8A0FDEF14F0FFEF14F004EF15F0145021
:102A0000125E1550135A1880D89015321432162EB3
:102A1000F1EF14F01750D8B410EF15F012EF15F0D5
:102A200016EF15F0186C191ED8B0192A18C012F03C
:102A300019C013F01200000E0B6E5C8056EF15F0FB
:102A40000B500624086E000E0720096E08C0F6FF22
:102A500009C0F7FFF86A070EF76403D00800F550C5
:102A600005D0F6CFE9FFF7CFEAFFEF50F00B82EC8D
:102A700017F00B500624086E000E0720096E08C0E0
:102A8000F6FF09C0F7FFF86A070EF76403D00800E5
:102A9000F55005D0F6CFE9FFF7CFEAFFEF500A6E09
:102AA0000A38F00BF00B82EC17F00B2A0B500624BF
:102AB000086E000E0720096E08C0F6FF09C0F7FF78
:102AC000F86A070EF76403D00800F55005D0F6CF7A
:102AD000E9FFF7CFEAFFEF500009D8A472EF15F035
:102AE00074EF15F020EF15F01200000E0A6E000EC4
:102AF0000B6E000E0C6E000E0D6E065007100810C7
:102B00000910D8B486EF15F088EF15F0BEEF15F078
:102B1000010E0E6E92EF15F0D89006360736083685
:102B200009360E2A09AE97EF15F099EF15F08CEFE4
:102B300015F0D8900A360B360C360D360650025C6E
:102B4000075003580850045809500558D8A0ABEF57
:102B500015F0ADEF15F0B6EF15F00650025E075018
:102B6000035A0850045A0950055A0A80D89009326D
:102B70000832073206320E2E99EF15F00AC002F025
:102B80000BC003F00CC004F00DC005F01200000EE5
:102B9000076E000E066E04500510D8B4D2EF15F083
:102BA000D4EF15F0FCEF15F0010E086EDCEF15F018
:102BB000D89004360536082A05AEE1EF15F0E3EFAC
:102BC00015F0D8EF15F0D890063607360450025CA1
:102BD00005500358D8A0EFEF15F0F1EF15F0F6EF20
:102BE00015F00450025E0550035A0680D890053255
:102BF0000432082EE3EF15F006C002F007C003F020
:102C00001200000E0A6E000E0B6E000E0C6E000E0F
:102C10000D6E02A00EEF16F010EF16F018EF16F082
:102C200006500A2607500B2208500C2209500D228C
:102C3000D8900636073608360936D8900532043261
:102C4000033202320250031004100510D8A42BEFF7
:102C500016F02DEF16F009EF16F00AC002F00BC0C7
:102C600003F00CC004F00DC005F012000B6E51EF24
:102C700016F00B50BF0F20EC17F06AEF16F00B5058
:102C8000930F20EC17F06AEF16F00B50D30F20ECE7
:102C900017F06AEF16F00B507F0F20EC17F06AEF79
:102CA00016F00850096E0A6A0A50000AD8B45BEFA1
:102CB00016F04BEF16F00950020AD8B439EF16F0AF
:102CC000010AD8B43FEF16F0070AD8B445EF16F062
:102CD0004BEF16F01200420EF66E300EF76E000E3D
:102CE000F86E00EE9AF010EE10F00900F5CFEEFF4E
:102CF000E550E150FAE1520EF66E300EF76E000E1E
:102D0000F86E00EE53F010EE08F00900F5CFEEFF7C
:102D1000E550E150FAE100EE60F03A0EEE6AE806A6
:102D2000FDE15C6A00EE35F01E0EEE6AE806FDE19C
:102D30005D905D92000EF86E000144EF17F00B50AD
:102D40000C10D8B4A6EF16F0A8EF16F0CCEF16F0E2
:102D5000010E0D6EB0EF16F0D8900B360C360D2A22
:102D60000CAEB5EF16F0B7EF16F0ACEF16F00B5057
:102D7000095C0C500A58D8A0C0EF16F0C2EF16F04C
:102D8000C6EF16F00B50095E0C500A5AD8900C3260
:102D90000B320D2EB7EF16F009C009F00AC00AF089
:102DA0001200280EC66E000E026E2D0E036E310E3E
:102DB000046E010E056E0FC013F010C014F011C0A8
:102DC00015F012C016F0020ED890133614361536D0
:102DD0001636E82EE4EF16F013C006F014C007F024
:102DE00015C008F016C009F075EC15F00204C86EA5
:102DF000000EC76E12000600000E4A6E000E496EED
:102E000008EF17F00D0EE82EFED700F0494A4A2AC7
:102E10005750495C4A50800A016E5850800A015848
:102E2000D8A015EF17F017EF17F002EF17F08A860A
:102E3000C80E00D0E82EFDD78A96F0925D92110060
:102E4000076E5C900750F00B82EC17F00738F00B20
:102E5000F00B82EC17F00704D8B431EF17F033EF22
:102E600017F03CEF17F0020E0718D8A43AEF17F04E
:102E70003CEF17F043EF17F00D0E066EFC0EE82E38
:102E8000FED7062EFCD7120093968A96F188F08E14
:102E9000F098D09EF28E030E926E0D0EC16E9D0EB6
:102EA000C06EA00E0F6E860E106E010E116E000E1B
:102EB000126ED1EC16F04E0E42EC14F049EC04F018
:102EC00081EC12F062EF17F007EF00F002C008F09B
:102ED00003C009F074EF17F008C0D9FF09C0DAFF8A
:102EE00004C0DFFF084A092A0606D8A007060628FC
:102EF00006E10728D8A47FEF17F081EF17F06CEFF9
:102F000017F01200056E000E5CB0010E05120550A0
:102F1000FB0B08EC18F000D000D000F005500409BD
:102F200008EC18F000D000D000F00550FB0B08ECC6
:102F300018F0A60EE82EFED700D01200046E000E88
:102F4000036E3A0E0460A7EF17F0A9EF17F0B3EF86
:102F500017F02F0E0464AFEF17F0B1EF17F0B3EFD7
:102F600017F0010E036E03C002F002301200036E70
:102F7000C7B4BDEF17F0BFEF17F0B8EF17F0C5CF2C
:102F800002F01F0E0216D8A4C8EF17F0CAEF17F010
:102F9000B8EF17F003C0C9FF1200C7B4D2EF17F0A3
:102FA000D4EF17F0CDEF17F0C5CF02F01F0E0216C9
:102FB000D8A4DDEF17F0DFEF17F0CDEF17F0C584E1
:102FC0001200C7B4E6EF17F0E8EF17F0E1EF17F0E3
:102FD000C5CF02F01F0E0216D8A4F1EF17F0F3EFE1
:102FE00017F0E1EF17F0C58012000C500E02F3CF7E
:102FF00010F0F4CF11F00C500F02F35011260D50C9
:103000000E02F350112610C00CF011C00DF012008A
:10301000046EE1EC17F05B50B7EC17F004505A1057
:10302000B7EC17F0CDEC17F01200066E5C8006507E
:10303000F00B82EC17F00638F00BF00B82EC17F077
:10304000120031323341343536423738394320307B
:0A3050004544020002005208200867
:020000040020DA
:08000000FFFFFFFFFFFFFFFF00
:020000040030CA
:0E000000240C181EFF0081FF0FC00FE00F4000
:00000001FF
